{
  "_format": "hh-sol-artifact-1",
  "contractName": "OloidNFT",
  "sourceName": "contracts/NFT_non-upgradeable.sol",
  "abi": [
    {
      "inputs": [
        {
          "internalType": "address",
          "name": "__withdrawable",
          "type": "address"
        },
        {
          "internalType": "address",
          "name": "_token",
          "type": "address"
        }
      ],
      "stateMutability": "nonpayable",
      "type": "constructor"
    },
    {
      "anonymous": false,
      "inputs": [
        {
          "indexed": true,
          "internalType": "address",
          "name": "owner",
          "type": "address"
        },
        {
          "indexed": true,
          "internalType": "address",
          "name": "approved",
          "type": "address"
        },
        {
          "indexed": true,
          "internalType": "uint256",
          "name": "tokenId",
          "type": "uint256"
        }
      ],
      "name": "Approval",
      "type": "event"
    },
    {
      "anonymous": false,
      "inputs": [
        {
          "indexed": true,
          "internalType": "address",
          "name": "owner",
          "type": "address"
        },
        {
          "indexed": true,
          "internalType": "address",
          "name": "operator",
          "type": "address"
        },
        {
          "indexed": false,
          "internalType": "bool",
          "name": "approved",
          "type": "bool"
        }
      ],
      "name": "ApprovalForAll",
      "type": "event"
    },
    {
      "anonymous": false,
      "inputs": [
        {
          "indexed": true,
          "internalType": "address",
          "name": "previousOwner",
          "type": "address"
        },
        {
          "indexed": true,
          "internalType": "address",
          "name": "newOwner",
          "type": "address"
        }
      ],
      "name": "OwnershipTransferred",
      "type": "event"
    },
    {
      "anonymous": false,
      "inputs": [
        {
          "indexed": true,
          "internalType": "address",
          "name": "from",
          "type": "address"
        },
        {
          "indexed": true,
          "internalType": "address",
          "name": "to",
          "type": "address"
        },
        {
          "indexed": true,
          "internalType": "uint256",
          "name": "tokenId",
          "type": "uint256"
        }
      ],
      "name": "Transfer",
      "type": "event"
    },
    {
      "inputs": [],
      "name": "_INTERFACE_ID_ERC721_VERIFY_FINGERPRINT",
      "outputs": [
        {
          "internalType": "bytes4",
          "name": "",
          "type": "bytes4"
        }
      ],
      "stateMutability": "view",
      "type": "function"
    },
    {
      "inputs": [
        {
          "internalType": "address",
          "name": "to",
          "type": "address"
        },
        {
          "internalType": "uint256",
          "name": "tokenId",
          "type": "uint256"
        }
      ],
      "name": "approve",
      "outputs": [],
      "stateMutability": "nonpayable",
      "type": "function"
    },
    {
      "inputs": [
        {
          "internalType": "address",
          "name": "owner",
          "type": "address"
        }
      ],
      "name": "balanceOf",
      "outputs": [
        {
          "internalType": "uint256",
          "name": "",
          "type": "uint256"
        }
      ],
      "stateMutability": "view",
      "type": "function"
    },
    {
      "inputs": [
        {
          "internalType": "uint256",
          "name": "",
          "type": "uint256"
        }
      ],
      "name": "extraInfoMap",
      "outputs": [
        {
          "internalType": "string",
          "name": "metaDataURI",
          "type": "string"
        },
        {
          "internalType": "bytes32",
          "name": "metaDataHash",
          "type": "bytes32"
        }
      ],
      "stateMutability": "view",
      "type": "function"
    },
    {
      "inputs": [
        {
          "internalType": "uint256",
          "name": "tokenId",
          "type": "uint256"
        }
      ],
      "name": "getApproved",
      "outputs": [
        {
          "internalType": "address",
          "name": "",
          "type": "address"
        }
      ],
      "stateMutability": "view",
      "type": "function"
    },
    {
      "inputs": [
        {
          "internalType": "string",
          "name": "_metaData",
          "type": "string"
        }
      ],
      "name": "getMetaDataHash",
      "outputs": [
        {
          "internalType": "bytes32",
          "name": "",
          "type": "bytes32"
        }
      ],
      "stateMutability": "pure",
      "type": "function"
    },
    {
      "inputs": [],
      "name": "getMintPrice",
      "outputs": [
        {
          "internalType": "uint256",
          "name": "",
          "type": "uint256"
        }
      ],
      "stateMutability": "view",
      "type": "function"
    },
    {
      "inputs": [],
      "name": "getMintTokenAmount",
      "outputs": [
        {
          "internalType": "uint256",
          "name": "",
          "type": "uint256"
        }
      ],
      "stateMutability": "view",
      "type": "function"
    },
    {
      "inputs": [
        {
          "internalType": "address",
          "name": "_addr",
          "type": "address"
        }
      ],
      "name": "getTokenIdsByAddress",
      "outputs": [
        {
          "internalType": "uint256[]",
          "name": "",
          "type": "uint256[]"
        }
      ],
      "stateMutability": "view",
      "type": "function"
    },
    {
      "inputs": [
        {
          "internalType": "address",
          "name": "owner",
          "type": "address"
        },
        {
          "internalType": "address",
          "name": "operator",
          "type": "address"
        }
      ],
      "name": "isApprovedForAll",
      "outputs": [
        {
          "internalType": "bool",
          "name": "",
          "type": "bool"
        }
      ],
      "stateMutability": "view",
      "type": "function"
    },
    {
      "inputs": [
        {
          "internalType": "uint256",
          "name": "_count",
          "type": "uint256"
        }
      ],
      "name": "mint",
      "outputs": [],
      "stateMutability": "payable",
      "type": "function"
    },
    {
      "inputs": [],
      "name": "mintPrice",
      "outputs": [
        {
          "internalType": "uint256",
          "name": "",
          "type": "uint256"
        }
      ],
      "stateMutability": "view",
      "type": "function"
    },
    {
      "inputs": [],
      "name": "mintPriceByToken",
      "outputs": [
        {
          "internalType": "uint256",
          "name": "",
          "type": "uint256"
        }
      ],
      "stateMutability": "view",
      "type": "function"
    },
    {
      "inputs": [],
      "name": "name",
      "outputs": [
        {
          "internalType": "string",
          "name": "",
          "type": "string"
        }
      ],
      "stateMutability": "view",
      "type": "function"
    },
    {
      "inputs": [],
      "name": "owner",
      "outputs": [
        {
          "internalType": "address",
          "name": "",
          "type": "address"
        }
      ],
      "stateMutability": "view",
      "type": "function"
    },
    {
      "inputs": [
        {
          "internalType": "uint256",
          "name": "tokenId",
          "type": "uint256"
        }
      ],
      "name": "ownerOf",
      "outputs": [
        {
          "internalType": "address",
          "name": "",
          "type": "address"
        }
      ],
      "stateMutability": "view",
      "type": "function"
    },
    {
      "inputs": [],
      "name": "renounceOwnership",
      "outputs": [],
      "stateMutability": "nonpayable",
      "type": "function"
    },
    {
      "inputs": [
        {
          "internalType": "address",
          "name": "from",
          "type": "address"
        },
        {
          "internalType": "address",
          "name": "to",
          "type": "address"
        },
        {
          "internalType": "uint256",
          "name": "tokenId",
          "type": "uint256"
        }
      ],
      "name": "safeTransferFrom",
      "outputs": [],
      "stateMutability": "nonpayable",
      "type": "function"
    },
    {
      "inputs": [
        {
          "internalType": "address",
          "name": "from",
          "type": "address"
        },
        {
          "internalType": "address",
          "name": "to",
          "type": "address"
        },
        {
          "internalType": "uint256",
          "name": "tokenId",
          "type": "uint256"
        },
        {
          "internalType": "bytes",
          "name": "_data",
          "type": "bytes"
        }
      ],
      "name": "safeTransferFrom",
      "outputs": [],
      "stateMutability": "nonpayable",
      "type": "function"
    },
    {
      "inputs": [
        {
          "internalType": "address",
          "name": "operator",
          "type": "address"
        },
        {
          "internalType": "bool",
          "name": "approved",
          "type": "bool"
        }
      ],
      "name": "setApprovalForAll",
      "outputs": [],
      "stateMutability": "nonpayable",
      "type": "function"
    },
    {
      "inputs": [
        {
          "internalType": "string",
          "name": "_newbaseTokenURI",
          "type": "string"
        }
      ],
      "name": "setBaseURI",
      "outputs": [],
      "stateMutability": "nonpayable",
      "type": "function"
    },
    {
      "inputs": [
        {
          "internalType": "uint256",
          "name": "_maxCount",
          "type": "uint256"
        }
      ],
      "name": "setMaxMintCount",
      "outputs": [],
      "stateMutability": "nonpayable",
      "type": "function"
    },
    {
      "inputs": [
        {
          "internalType": "uint256",
          "name": "_price",
          "type": "uint256"
        }
      ],
      "name": "setMintPrice",
      "outputs": [],
      "stateMutability": "nonpayable",
      "type": "function"
    },
    {
      "inputs": [
        {
          "internalType": "uint256",
          "name": "_amount",
          "type": "uint256"
        }
      ],
      "name": "setMintTokenAmount",
      "outputs": [],
      "stateMutability": "nonpayable",
      "type": "function"
    },
    {
      "inputs": [
        {
          "internalType": "address",
          "name": "_newNMetaAddress",
          "type": "address"
        }
      ],
      "name": "setToken",
      "outputs": [],
      "stateMutability": "nonpayable",
      "type": "function"
    },
    {
      "inputs": [
        {
          "internalType": "address",
          "name": "_newWithdrawable",
          "type": "address"
        }
      ],
      "name": "setWithdrawableAddress",
      "outputs": [],
      "stateMutability": "nonpayable",
      "type": "function"
    },
    {
      "inputs": [
        {
          "internalType": "bytes4",
          "name": "interfaceId",
          "type": "bytes4"
        }
      ],
      "name": "supportsInterface",
      "outputs": [
        {
          "internalType": "bool",
          "name": "",
          "type": "bool"
        }
      ],
      "stateMutability": "view",
      "type": "function"
    },
    {
      "inputs": [],
      "name": "symbol",
      "outputs": [
        {
          "internalType": "string",
          "name": "",
          "type": "string"
        }
      ],
      "stateMutability": "view",
      "type": "function"
    },
    {
      "inputs": [
        {
          "internalType": "uint256",
          "name": "index",
          "type": "uint256"
        }
      ],
      "name": "tokenByIndex",
      "outputs": [
        {
          "internalType": "uint256",
          "name": "",
          "type": "uint256"
        }
      ],
      "stateMutability": "view",
      "type": "function"
    },
    {
      "inputs": [
        {
          "internalType": "uint256",
          "name": "tokenId",
          "type": "uint256"
        }
      ],
      "name": "tokenMetaData",
      "outputs": [
        {
          "internalType": "uint256",
          "name": "",
          "type": "uint256"
        }
      ],
      "stateMutability": "view",
      "type": "function"
    },
    {
      "inputs": [
        {
          "internalType": "uint256",
          "name": "_count",
          "type": "uint256"
        }
      ],
      "name": "tokenMint",
      "outputs": [],
      "stateMutability": "nonpayable",
      "type": "function"
    },
    {
      "inputs": [
        {
          "internalType": "address",
          "name": "owner",
          "type": "address"
        },
        {
          "internalType": "uint256",
          "name": "index",
          "type": "uint256"
        }
      ],
      "name": "tokenOfOwnerByIndex",
      "outputs": [
        {
          "internalType": "uint256",
          "name": "",
          "type": "uint256"
        }
      ],
      "stateMutability": "view",
      "type": "function"
    },
    {
      "inputs": [
        {
          "internalType": "uint256",
          "name": "tokenId",
          "type": "uint256"
        }
      ],
      "name": "tokenURI",
      "outputs": [
        {
          "internalType": "string",
          "name": "",
          "type": "string"
        }
      ],
      "stateMutability": "view",
      "type": "function"
    },
    {
      "inputs": [],
      "name": "totalSupply",
      "outputs": [
        {
          "internalType": "uint256",
          "name": "",
          "type": "uint256"
        }
      ],
      "stateMutability": "view",
      "type": "function"
    },
    {
      "inputs": [
        {
          "internalType": "address",
          "name": "from",
          "type": "address"
        },
        {
          "internalType": "address",
          "name": "to",
          "type": "address"
        },
        {
          "internalType": "uint256",
          "name": "tokenId",
          "type": "uint256"
        }
      ],
      "name": "transferFrom",
      "outputs": [],
      "stateMutability": "nonpayable",
      "type": "function"
    },
    {
      "inputs": [
        {
          "internalType": "address",
          "name": "newOwner",
          "type": "address"
        }
      ],
      "name": "transferOwnership",
      "outputs": [],
      "stateMutability": "nonpayable",
      "type": "function"
    },
    {
      "inputs": [
        {
          "internalType": "uint256",
          "name": "_tokenId",
          "type": "uint256"
        },
        {
          "internalType": "bytes32",
          "name": "_fingerprint",
          "type": "bytes32"
        }
      ],
      "name": "verifyFingerprint",
      "outputs": [
        {
          "internalType": "bool",
          "name": "",
          "type": "bool"
        }
      ],
      "stateMutability": "view",
      "type": "function"
    },
    {
      "inputs": [],
      "name": "withdrawStuckBNB",
      "outputs": [
        {
          "internalType": "bool",
          "name": "",
          "type": "bool"
        }
      ],
      "stateMutability": "nonpayable",
      "type": "function"
    },
    {
      "inputs": [],
      "name": "withdrawStuckToken",
      "outputs": [],
      "stateMutability": "nonpayable",
      "type": "function"
    },
    {
      "inputs": [
        {
          "internalType": "address",
          "name": "_token",
          "type": "address"
        }
      ],
      "name": "withdrawStuckTokens",
      "outputs": [],
      "stateMutability": "nonpayable",
      "type": "function"
    }
  ],
  "bytecode": "0x6080604052600a6014553480156200001657600080fd5b50604051620030553803806200305583398101604081905262000039916200021d565b604080518082018252600981526813d313d2510813919560ba1b60208083019182528351808501909452600584526413d313d25160da1b90840152815191929162000087916000916200015a565b5080516200009d9060019060208401906200015a565b505050620000ba620000b46200010460201b60201c565b62000108565b601580546001600160a01b039384166001600160a01b031991821617909155601380549290931691161790556611c37937e08000601155683635c9adc5dea0000060125562000292565b3390565b600b80546001600160a01b038381166001600160a01b0319831681179093556040519116919082907f8be0079c531659141344cd1fd0a4f28419497f9722a3daafe3b4186f6b6457e090600090a35050565b828054620001689062000255565b90600052602060002090601f0160209004810192826200018c5760008555620001d7565b82601f10620001a757805160ff1916838001178555620001d7565b82800160010185558215620001d7579182015b82811115620001d7578251825591602001919060010190620001ba565b50620001e5929150620001e9565b5090565b5b80821115620001e55760008155600101620001ea565b80516001600160a01b03811681146200021857600080fd5b919050565b600080604083850312156200023157600080fd5b6200023c8362000200565b91506200024c6020840162000200565b90509250929050565b600181811c908216806200026a57607f821691505b602082108114156200028c57634e487b7160e01b600052602260045260246000fd5b50919050565b612db380620002a26000396000f3fe60806040526004361061023b5760003560e01c8063715018a61161012e578063a7f93ebd116100ab578063cb9637281161006f578063cb963728146106c5578063e985e9c5146106e5578063f17f54a51461072e578063f2fde38b1461074e578063f4a0a5281461076e57600080fd5b8063a7f93ebd1461063b578063af6a347614610650578063b6adefb914610670578063b88d4fde14610685578063c87b56dd146106a557600080fd5b80638cb5b56b116100f25780638cb5b56b146105a35780638da5cb5b146105d557806395d89b41146105f3578063a0712d6814610608578063a22cb4651461061b57600080fd5b8063715018a61461051657806372b66a591461052b57806377136f1a1461054157806384dd44521461056157806389d5feee1461057657600080fd5b806342842e0e116101bc57806355f804b31161018057806355f804b31461048057806358d4374e146104a05780636352211e146104c05780636817c76c146104e057806370a08231146104f657600080fd5b806342842e0e146103dd578063484ed334146103fd5780634f64f049146104125780634f6ccce71461043257806353ed87651461045257600080fd5b806316606e4b1161020357806316606e4b1461031157806318160ddd1461035e57806323b872dd1461037d5780632f745c591461039d578063306c9697146103bd57600080fd5b806301ffc9a71461024057806306fdde0314610275578063081812fc14610297578063095ea7b3146102cf578063144fa6d7146102f1575b600080fd5b34801561024c57600080fd5b5061026061025b3660046126ee565b61078e565b60405190151581526020015b60405180910390f35b34801561028157600080fd5b5061028a61079f565b60405161026c9190612763565b3480156102a357600080fd5b506102b76102b2366004612776565b610831565b6040516001600160a01b03909116815260200161026c565b3480156102db57600080fd5b506102ef6102ea3660046127ab565b6108be565b005b3480156102fd57600080fd5b506102ef61030c3660046127d5565b6109d4565b34801561031d57600080fd5b506103457f8cb5b56b0b357b005adf5059f554ed4289f3f4f430f156b4eee18609bb91c36881565b6040516001600160e01b0319909116815260200161026c565b34801561036a57600080fd5b506008545b60405190815260200161026c565b34801561038957600080fd5b506102ef6103983660046127f0565b610a20565b3480156103a957600080fd5b5061036f6103b83660046127ab565b610a62565b3480156103c957600080fd5b506102ef6103d8366004612776565b610af8565b3480156103e957600080fd5b506102ef6103f83660046127f0565b610d76565b34801561040957600080fd5b50610260610d91565b34801561041e57600080fd5b5061036f61042d3660046128b8565b610e19565b34801561043e57600080fd5b5061036f61044d366004612776565b610e91565b34801561045e57600080fd5b5061047261046d366004612776565b610f24565b60405161026c929190612901565b34801561048c57600080fd5b506102ef61049b3660046128b8565b610fc8565b3480156104ac57600080fd5b506102ef6104bb3660046127d5565b611009565b3480156104cc57600080fd5b506102b76104db366004612776565b611055565b3480156104ec57600080fd5b5061036f60115481565b34801561050257600080fd5b5061036f6105113660046127d5565b6110cc565b34801561052257600080fd5b506102ef611153565b34801561053757600080fd5b5061036f60125481565b34801561054d57600080fd5b506102ef61055c366004612776565b611189565b34801561056d57600080fd5b506102ef6111b8565b34801561058257600080fd5b506105966105913660046127d5565b6112cd565b60405161026c9190612923565b3480156105af57600080fd5b506102606105be366004612967565b600091825260166020526040909120600101541490565b3480156105e157600080fd5b50600b546001600160a01b03166102b7565b3480156105ff57600080fd5b5061028a611339565b6102ef610616366004612776565b611348565b34801561062757600080fd5b506102ef610636366004612997565b6114b5565b34801561064757600080fd5b5060115461036f565b34801561065c57600080fd5b5061036f61066b366004612776565b61157a565b34801561067c57600080fd5b5060125461036f565b34801561069157600080fd5b506102ef6106a03660046129ce565b6115a1565b3480156106b157600080fd5b5061028a6106c0366004612776565b6115d9565b3480156106d157600080fd5b506102ef6106e03660046127d5565b6115e4565b3480156106f157600080fd5b50610260610700366004612a4a565b6001600160a01b03918216600090815260056020908152604080832093909416825291909152205460ff1690565b34801561073a57600080fd5b506102ef610749366004612776565b6116f4565b34801561075a57600080fd5b506102ef6107693660046127d5565b611723565b34801561077a57600080fd5b506102ef610789366004612776565b6117bb565b6000610799826117ea565b92915050565b6060600080546107ae90612a7d565b80601f01602080910402602001604051908101604052809291908181526020018280546107da90612a7d565b80156108275780601f106107fc57610100808354040283529160200191610827565b820191906000526020600020905b81548152906001019060200180831161080a57829003601f168201915b5050505050905090565b600061083c8261180f565b6108a25760405162461bcd60e51b815260206004820152602c60248201527f4552433732313a20617070726f76656420717565727920666f72206e6f6e657860448201526b34b9ba32b73a103a37b5b2b760a11b60648201526084015b60405180910390fd5b506000908152600460205260409020546001600160a01b031690565b60006108c982611055565b9050806001600160a01b0316836001600160a01b031614156109375760405162461bcd60e51b815260206004820152602160248201527f4552433732313a20617070726f76616c20746f2063757272656e74206f776e656044820152603960f91b6064820152608401610899565b336001600160a01b038216148061095357506109538133610700565b6109c55760405162461bcd60e51b815260206004820152603860248201527f4552433732313a20617070726f76652063616c6c6572206973206e6f74206f7760448201527f6e6572206e6f7220617070726f76656420666f7220616c6c00000000000000006064820152608401610899565b6109cf838361182c565b505050565b600b546001600160a01b031633146109fe5760405162461bcd60e51b815260040161089990612ab8565b601380546001600160a01b0319166001600160a01b0392909216919091179055565b610a2b83838361189a565b610a3583826118cb565b6001600160a01b039091166000908152600e60209081526040822080546001810182559083529120015550565b6000610a6d836110cc565b8210610acf5760405162461bcd60e51b815260206004820152602b60248201527f455243373231456e756d657261626c653a206f776e657220696e646578206f7560448201526a74206f6620626f756e647360a81b6064820152608401610899565b506001600160a01b03919091166000908152600660209081526040808320938352929052205490565b6012548190610b079082611a4b565b601354604051636eb1769f60e11b81523360048201523060248201526001600160a01b039091169063dd62ed3e90604401602060405180830381865afa158015610b55573d6000803e3d6000fd5b505050506040513d601f19601f82011682018060405250810190610b799190612aed565b1015610bc75760405162461bcd60e51b815260206004820152601860248201527f4e6f7420656e6f75676820746f6b656e20616d6f756e742e00000000000000006044820152606401610899565b33600090815260106020526040812054839190610be49083611a5e565b9050601454811115610c335760405162461bcd60e51b815260206004820152601860248201527727bb32b9103a34329036b0bc1036b4b73a1031b7bab73a1760411b6044820152606401610899565b6013546012546001600160a01b03909116906323b872dd9033903090610c599089611a4b565b6040516001600160e01b031960e086901b1681526001600160a01b03938416600482015292909116602483015260448201526064016020604051808303816000875af1158015610cad573d6000803e3d6000fd5b505050506040513d601f19601f82011682018060405250810190610cd19190612b06565b5060005b84811015610d6f576000610ce8600c5490565b90506000610cf582611a6a565b604051602001610d059190612b23565b6040516020818303038152906040529050610d203383611a75565b610d2a8282611bb4565b336000908152600e6020908152604082208054600181018255908352912001829055610d5a600c80546001019055565b50508080610d6790612b62565b915050610cd5565b5050505050565b6109cf838383604051806020016040528060008152506115a1565b600b546000906001600160a01b03163314610dbe5760405162461bcd60e51b815260040161089990612ab8565b6015546040516000916001600160a01b03169047908381818185875af1925050503d8060008114610e0b576040519150601f19603f3d011682016040523d82523d6000602084013e610e10565b606091505b50909250505090565b60008082604051602001610e2d9190612b7d565b60408051808303601f1901815282825280516020918201207f19457468657265756d205369676e6564204d6573736167653a0a33320000000082850152603c8085019190915282518085039091018152605c90930190915281519101209392505050565b6000610e9c60085490565b8210610eff5760405162461bcd60e51b815260206004820152602c60248201527f455243373231456e756d657261626c653a20676c6f62616c20696e646578206f60448201526b7574206f6620626f756e647360a01b6064820152608401610899565b60088281548110610f1257610f12612b99565b90600052602060002001549050919050565b601660205260009081526040902080548190610f3f90612a7d565b80601f0160208091040260200160405190810160405280929190818152602001828054610f6b90612a7d565b8015610fb85780601f10610f8d57610100808354040283529160200191610fb8565b820191906000526020600020905b815481529060010190602001808311610f9b57829003601f168201915b5050505050908060010154905082565b600b546001600160a01b03163314610ff25760405162461bcd60e51b815260040161089990612ab8565b805161100590600d90602084019061263f565b5050565b600b546001600160a01b031633146110335760405162461bcd60e51b815260040161089990612ab8565b601580546001600160a01b0319166001600160a01b0392909216919091179055565b6000818152600260205260408120546001600160a01b0316806107995760405162461bcd60e51b815260206004820152602960248201527f4552433732313a206f776e657220717565727920666f72206e6f6e657869737460448201526832b73a103a37b5b2b760b91b6064820152608401610899565b60006001600160a01b0382166111375760405162461bcd60e51b815260206004820152602a60248201527f4552433732313a2062616c616e636520717565727920666f7220746865207a65604482015269726f206164647265737360b01b6064820152608401610899565b506001600160a01b031660009081526003602052604090205490565b600b546001600160a01b0316331461117d5760405162461bcd60e51b815260040161089990612ab8565b6111876000611c3f565b565b600b546001600160a01b031633146111b35760405162461bcd60e51b815260040161089990612ab8565b601255565b600b546001600160a01b031633146111e25760405162461bcd60e51b815260040161089990612ab8565b6013546015546040516370a0823160e01b81523060048201526001600160a01b039283169263a9059cbb92169083906370a0823190602401602060405180830381865afa158015611237573d6000803e3d6000fd5b505050506040513d601f19601f8201168201806040525081019061125b9190612aed565b6040516001600160e01b031960e085901b1681526001600160a01b03909216600483015260248201526044016020604051808303816000875af11580156112a6573d6000803e3d6000fd5b505050506040513d601f19601f820116820180604052508101906112ca9190612b06565b50565b6001600160a01b0381166000908152600e602090815260409182902080548351818402810184019094528084526060939283018282801561132d57602002820191906000526020600020905b815481526020019060010190808311611319575b50505050509050919050565b6060600180546107ae90612a7d565b803460006113568284611c91565b90506011548110156113a35760405162461bcd60e51b81526020600482015260166024820152752737ba1032b737bab3b41036b4b73a10383934b1b29760511b6044820152606401610899565b336000908152601060205260408120548591906113c09083611a5e565b905060145481111561140f5760405162461bcd60e51b815260206004820152601860248201527727bb32b9103a34329036b0bc1036b4b73a1031b7bab73a1760411b6044820152606401610899565b60005b868110156114ac576000611425600c5490565b9050600061143282611a6a565b6040516020016114429190612b23565b604051602081830303815290604052905061145d3383611a75565b6114678282611bb4565b336000908152600e6020908152604082208054600181018255908352912001829055611497600c80546001019055565b505080806114a490612b62565b915050611412565b50505050505050565b6001600160a01b03821633141561150e5760405162461bcd60e51b815260206004820152601960248201527f4552433732313a20617070726f766520746f2063616c6c6572000000000000006044820152606401610899565b3360008181526005602090815260408083206001600160a01b03871680855290835292819020805460ff191686151590811790915590519081529192917f17307eab39ab6107e8899845ad3d59bd9653f200f220920489ca2b5937696c31910160405180910390a35050565b60006115858261180f565b61158e57600080fd5b506000908152600f602052604090205490565b6115ab3383611c9d565b6115c75760405162461bcd60e51b815260040161089990612baf565b6115d384848484611d87565b50505050565b606061079982611dba565b600b546001600160a01b0316331461160e5760405162461bcd60e51b815260040161089990612ab8565b6015546040516370a0823160e01b81523060048201526001600160a01b038381169263a9059cbb9291169083906370a0823190602401602060405180830381865afa158015611661573d6000803e3d6000fd5b505050506040513d601f19601f820116820180604052508101906116859190612aed565b6040516001600160e01b031960e085901b1681526001600160a01b03909216600483015260248201526044016020604051808303816000875af11580156116d0573d6000803e3d6000fd5b505050506040513d601f19601f820116820180604052508101906110059190612b06565b600b546001600160a01b0316331461171e5760405162461bcd60e51b815260040161089990612ab8565b601455565b600b546001600160a01b0316331461174d5760405162461bcd60e51b815260040161089990612ab8565b6001600160a01b0381166117b25760405162461bcd60e51b815260206004820152602660248201527f4f776e61626c653a206e6577206f776e657220697320746865207a65726f206160448201526564647265737360d01b6064820152608401610899565b6112ca81611c3f565b600b546001600160a01b031633146117e55760405162461bcd60e51b815260040161089990612ab8565b601155565b60006001600160e01b0319821663780e9d6360e01b1480610799575061079982611f1c565b6000908152600260205260409020546001600160a01b0316151590565b600081815260046020526040902080546001600160a01b0319166001600160a01b038416908117909155819061186182611055565b6001600160a01b03167f8c5be1e5ebec7d5bd14f71427d1e84f3dd0314c0f7b2291e5b200ac8c7c3b92560405160405180910390a45050565b6118a43382611c9d565b6118c05760405162461bcd60e51b815260040161089990612baf565b6109cf838383611f6c565b6000805b6001600160a01b0384166000908152600e6020526040902054811015611947576001600160a01b0384166000908152600e6020526040902080548491908390811061191c5761191c612b99565b9060005260206000200154141561193557809150611947565b8061193f81612b62565b9150506118cf565b50805b6001600160a01b0384166000908152600e602052604090205461196f90600190612c00565b811015611a08576001600160a01b0384166000908152600e60205260409020611999826001612c17565b815481106119a9576119a9612b99565b9060005260206000200154600e6000866001600160a01b03166001600160a01b0316815260200190815260200160002082815481106119ea576119ea612b99565b60009182526020909120015580611a0081612b62565b91505061194a565b506001600160a01b0383166000908152600e60205260409020805480611a3057611a30612c2f565b60019003818190600052602060002001600090559055505050565b6000611a578284612c45565b9392505050565b6000611a578284612c17565b606061079982612117565b6001600160a01b038216611acb5760405162461bcd60e51b815260206004820181905260248201527f4552433732313a206d696e7420746f20746865207a65726f20616464726573736044820152606401610899565b611ad48161180f565b15611b215760405162461bcd60e51b815260206004820152601c60248201527f4552433732313a20746f6b656e20616c7265616479206d696e746564000000006044820152606401610899565b611b2d60008383612215565b6001600160a01b0382166000908152600360205260408120805460019290611b56908490612c17565b909155505060008181526002602052604080822080546001600160a01b0319166001600160a01b03861690811790915590518392907fddf252ad1be2c89b69c2b068fc378daa952ba7f163c4a11628f55a4df523b3ef908290a45050565b611bbd8261180f565b611c205760405162461bcd60e51b815260206004820152602e60248201527f45524337323155524953746f726167653a2055524920736574206f66206e6f6e60448201526d32bc34b9ba32b73a103a37b5b2b760911b6064820152608401610899565b6000828152600a6020908152604090912082516109cf9284019061263f565b600b80546001600160a01b038381166001600160a01b0319831681179093556040519116919082907f8be0079c531659141344cd1fd0a4f28419497f9722a3daafe3b4186f6b6457e090600090a35050565b6000611a578284612c7a565b6000611ca88261180f565b611d095760405162461bcd60e51b815260206004820152602c60248201527f4552433732313a206f70657261746f7220717565727920666f72206e6f6e657860448201526b34b9ba32b73a103a37b5b2b760a11b6064820152608401610899565b6000611d1483611055565b9050806001600160a01b0316846001600160a01b03161480611d4f5750836001600160a01b0316611d4484610831565b6001600160a01b0316145b80611d7f57506001600160a01b0380821660009081526005602090815260408083209388168352929052205460ff165b949350505050565b611d92848484611f6c565b611d9e84848484612220565b6115d35760405162461bcd60e51b815260040161089990612c8e565b6060611dc58261180f565b611e2b5760405162461bcd60e51b815260206004820152603160248201527f45524337323155524953746f726167653a2055524920717565727920666f72206044820152703737b732bc34b9ba32b73a103a37b5b2b760791b6064820152608401610899565b6000828152600a602052604081208054611e4490612a7d565b80601f0160208091040260200160405190810160405280929190818152602001828054611e7090612a7d565b8015611ebd5780601f10611e9257610100808354040283529160200191611ebd565b820191906000526020600020905b815481529060010190602001808311611ea057829003601f168201915b505050505090506000611ece61231e565b9050805160001415611ee1575092915050565b815115611f13578082604051602001611efb929190612ce0565b60405160208183030381529060405292505050919050565b611d7f8461232d565b60006001600160e01b031982166380ac58cd60e01b1480611f4d57506001600160e01b03198216635b5e139f60e01b145b8061079957506301ffc9a760e01b6001600160e01b0319831614610799565b826001600160a01b0316611f7f82611055565b6001600160a01b031614611fe75760405162461bcd60e51b815260206004820152602960248201527f4552433732313a207472616e73666572206f6620746f6b656e2074686174206960448201526839903737ba1037bbb760b91b6064820152608401610899565b6001600160a01b0382166120495760405162461bcd60e51b8152602060048201526024808201527f4552433732313a207472616e7366657220746f20746865207a65726f206164646044820152637265737360e01b6064820152608401610899565b612054838383612215565b61205f60008261182c565b6001600160a01b0383166000908152600360205260408120805460019290612088908490612c00565b90915550506001600160a01b03821660009081526003602052604081208054600192906120b6908490612c17565b909155505060008181526002602052604080822080546001600160a01b0319166001600160a01b0386811691821790925591518493918716917fddf252ad1be2c89b69c2b068fc378daa952ba7f163c4a11628f55a4df523b3ef91a4505050565b60608161213b5750506040805180820190915260018152600360fc1b602082015290565b8160005b8115612165578061214f81612b62565b915061215e9050600a83612c7a565b915061213f565b60008167ffffffffffffffff8111156121805761218061282c565b6040519080825280601f01601f1916602001820160405280156121aa576020820181803683370190505b5090505b8415611d7f576121bf600183612c00565b91506121cc600a86612d0f565b6121d7906030612c17565b60f81b8183815181106121ec576121ec612b99565b60200101906001600160f81b031916908160001a90535061220e600a86612c7a565b94506121ae565b6109cf8383836123f7565b60006001600160a01b0384163b1561231357604051630a85bd0160e11b81526001600160a01b0385169063150b7a0290612264903390899088908890600401612d23565b6020604051808303816000875af192505050801561229f575060408051601f3d908101601f1916820190925261229c91810190612d60565b60015b6122f9573d8080156122cd576040519150601f19603f3d011682016040523d82523d6000602084013e6122d2565b606091505b5080516122f15760405162461bcd60e51b815260040161089990612c8e565b805181602001fd5b6001600160e01b031916630a85bd0160e11b149050611d7f565b506001949350505050565b6060600d80546107ae90612a7d565b60606123388261180f565b61239c5760405162461bcd60e51b815260206004820152602f60248201527f4552433732314d657461646174613a2055524920717565727920666f72206e6f60448201526e3732bc34b9ba32b73a103a37b5b2b760891b6064820152608401610899565b60006123a661231e565b905060008151116123c65760405180602001604052806000815250611a57565b806123d084612117565b6040516020016123e1929190612ce0565b6040516020818303038152906040529392505050565b6001600160a01b0383166124525761244d81600880546000838152600960205260408120829055600182018355919091527ff3f7a9fe364faab93b216da50a3214154f22a0a2b415b23a84c8169e8b636ee30155565b612475565b816001600160a01b0316836001600160a01b0316146124755761247583826124af565b6001600160a01b03821661248c576109cf8161254c565b826001600160a01b0316826001600160a01b0316146109cf576109cf82826125fb565b600060016124bc846110cc565b6124c69190612c00565b600083815260076020526040902054909150808214612519576001600160a01b03841660009081526006602090815260408083208584528252808320548484528184208190558352600790915290208190555b5060009182526007602090815260408084208490556001600160a01b039094168352600681528383209183525290812055565b60085460009061255e90600190612c00565b6000838152600960205260408120546008805493945090928490811061258657612586612b99565b9060005260206000200154905080600883815481106125a7576125a7612b99565b60009182526020808320909101929092558281526009909152604080822084905585825281205560088054806125df576125df612c2f565b6001900381819060005260206000200160009055905550505050565b6000612606836110cc565b6001600160a01b039093166000908152600660209081526040808320868452825280832085905593825260079052919091209190915550565b82805461264b90612a7d565b90600052602060002090601f01602090048101928261266d57600085556126b3565b82601f1061268657805160ff19168380011785556126b3565b828001600101855582156126b3579182015b828111156126b3578251825591602001919060010190612698565b506126bf9291506126c3565b5090565b5b808211156126bf57600081556001016126c4565b6001600160e01b0319811681146112ca57600080fd5b60006020828403121561270057600080fd5b8135611a57816126d8565b60005b8381101561272657818101518382015260200161270e565b838111156115d35750506000910152565b6000815180845261274f81602086016020860161270b565b601f01601f19169290920160200192915050565b602081526000611a576020830184612737565b60006020828403121561278857600080fd5b5035919050565b80356001600160a01b03811681146127a657600080fd5b919050565b600080604083850312156127be57600080fd5b6127c78361278f565b946020939093013593505050565b6000602082840312156127e757600080fd5b611a578261278f565b60008060006060848603121561280557600080fd5b61280e8461278f565b925061281c6020850161278f565b9150604084013590509250925092565b634e487b7160e01b600052604160045260246000fd5b600067ffffffffffffffff8084111561285d5761285d61282c565b604051601f8501601f19908116603f011681019082821181831017156128855761288561282c565b8160405280935085815286868601111561289e57600080fd5b858560208301376000602087830101525050509392505050565b6000602082840312156128ca57600080fd5b813567ffffffffffffffff8111156128e157600080fd5b8201601f810184136128f257600080fd5b611d7f84823560208401612842565b6040815260006129146040830185612737565b90508260208301529392505050565b6020808252825182820181905260009190848201906040850190845b8181101561295b5783518352928401929184019160010161293f565b50909695505050505050565b6000806040838503121561297a57600080fd5b50508035926020909101359150565b80151581146112ca57600080fd5b600080604083850312156129aa57600080fd5b6129b38361278f565b915060208301356129c381612989565b809150509250929050565b600080600080608085870312156129e457600080fd5b6129ed8561278f565b93506129fb6020860161278f565b925060408501359150606085013567ffffffffffffffff811115612a1e57600080fd5b8501601f81018713612a2f57600080fd5b612a3e87823560208401612842565b91505092959194509250565b60008060408385031215612a5d57600080fd5b612a668361278f565b9150612a746020840161278f565b90509250929050565b600181811c90821680612a9157607f821691505b60208210811415612ab257634e487b7160e01b600052602260045260246000fd5b50919050565b6020808252818101527f4f776e61626c653a2063616c6c6572206973206e6f7420746865206f776e6572604082015260600190565b600060208284031215612aff57600080fd5b5051919050565b600060208284031215612b1857600080fd5b8151611a5781612989565b60008251612b3581846020870161270b565b64173539b7b760d91b920191825250600501919050565b634e487b7160e01b600052601160045260246000fd5b6000600019821415612b7657612b76612b4c565b5060010190565b60008251612b8f81846020870161270b565b9190910192915050565b634e487b7160e01b600052603260045260246000fd5b60208082526031908201527f4552433732313a207472616e736665722063616c6c6572206973206e6f74206f6040820152701ddb995c881b9bdc88185c1c1c9bdd9959607a1b606082015260800190565b600082821015612c1257612c12612b4c565b500390565b60008219821115612c2a57612c2a612b4c565b500190565b634e487b7160e01b600052603160045260246000fd5b6000816000190483118215151615612c5f57612c5f612b4c565b500290565b634e487b7160e01b600052601260045260246000fd5b600082612c8957612c89612c64565b500490565b60208082526032908201527f4552433732313a207472616e7366657220746f206e6f6e20455243373231526560408201527131b2b4bb32b91034b6b83632b6b2b73a32b960711b606082015260800190565b60008351612cf281846020880161270b565b835190830190612d0681836020880161270b565b01949350505050565b600082612d1e57612d1e612c64565b500690565b6001600160a01b0385811682528416602082015260408101839052608060608201819052600090612d5690830184612737565b9695505050505050565b600060208284031215612d7257600080fd5b8151611a57816126d856fea2646970667358221220d6820d3d9016fe864cf65cf966255b623b6174d30d4f64953b938c879bd9570a64736f6c634300080b0033",
  "linkReferences": {},
  "deployedLinkReferences": {}
}