{
  "_format": "hh-sol-artifact-1",
  "contractName": "OLOID",
  "sourceName": "contracts/Oreca.sol",
  "abi": [
    {
      "inputs": [
        {
          "internalType": "address",
          "name": "_router",
          "type": "address"
        },
        {
          "internalType": "address",
          "name": "_usdt",
          "type": "address"
        }
      ],
      "stateMutability": "nonpayable",
      "type": "constructor"
    },
    {
      "anonymous": false,
      "inputs": [
        {
          "indexed": true,
          "internalType": "address",
          "name": "owner",
          "type": "address"
        },
        {
          "indexed": true,
          "internalType": "address",
          "name": "spender",
          "type": "address"
        },
        {
          "indexed": false,
          "internalType": "uint256",
          "name": "value",
          "type": "uint256"
        }
      ],
      "name": "Approval",
      "type": "event"
    },
    {
      "anonymous": false,
      "inputs": [
        {
          "indexed": true,
          "internalType": "uint256",
          "name": "newValue",
          "type": "uint256"
        },
        {
          "indexed": true,
          "internalType": "uint256",
          "name": "oldValue",
          "type": "uint256"
        }
      ],
      "name": "GasForProcessingUpdated",
      "type": "event"
    },
    {
      "anonymous": false,
      "inputs": [
        {
          "indexed": false,
          "internalType": "address[]",
          "name": "accounts",
          "type": "address[]"
        },
        {
          "indexed": false,
          "internalType": "bool",
          "name": "isExcluded",
          "type": "bool"
        }
      ],
      "name": "IncludeMultipleAccountsToFees",
      "type": "event"
    },
    {
      "anonymous": false,
      "inputs": [
        {
          "indexed": true,
          "internalType": "address",
          "name": "account",
          "type": "address"
        },
        {
          "indexed": false,
          "internalType": "bool",
          "name": "isExcluded",
          "type": "bool"
        }
      ],
      "name": "IncludeToFees",
      "type": "event"
    },
    {
      "anonymous": false,
      "inputs": [
        {
          "indexed": true,
          "internalType": "address",
          "name": "previousOwner",
          "type": "address"
        },
        {
          "indexed": true,
          "internalType": "address",
          "name": "newOwner",
          "type": "address"
        }
      ],
      "name": "OwnershipTransferred",
      "type": "event"
    },
    {
      "anonymous": false,
      "inputs": [
        {
          "indexed": false,
          "internalType": "uint256",
          "name": "iterations",
          "type": "uint256"
        },
        {
          "indexed": false,
          "internalType": "uint256",
          "name": "claims",
          "type": "uint256"
        },
        {
          "indexed": false,
          "internalType": "uint256",
          "name": "lastProcessedIndex",
          "type": "uint256"
        },
        {
          "indexed": true,
          "internalType": "bool",
          "name": "automatic",
          "type": "bool"
        },
        {
          "indexed": false,
          "internalType": "uint256",
          "name": "gas",
          "type": "uint256"
        },
        {
          "indexed": true,
          "internalType": "address",
          "name": "processor",
          "type": "address"
        }
      ],
      "name": "ProcessedDividendTracker",
      "type": "event"
    },
    {
      "anonymous": false,
      "inputs": [
        {
          "indexed": false,
          "internalType": "uint256",
          "name": "tokensSwapped",
          "type": "uint256"
        },
        {
          "indexed": false,
          "internalType": "uint256",
          "name": "amount",
          "type": "uint256"
        }
      ],
      "name": "SendDividends",
      "type": "event"
    },
    {
      "anonymous": false,
      "inputs": [
        {
          "indexed": true,
          "internalType": "address",
          "name": "pair",
          "type": "address"
        },
        {
          "indexed": true,
          "internalType": "bool",
          "name": "value",
          "type": "bool"
        }
      ],
      "name": "SetAutomatedMarketMakerPair",
      "type": "event"
    },
    {
      "anonymous": false,
      "inputs": [
        {
          "indexed": true,
          "internalType": "address",
          "name": "from",
          "type": "address"
        },
        {
          "indexed": true,
          "internalType": "address",
          "name": "to",
          "type": "address"
        },
        {
          "indexed": false,
          "internalType": "uint256",
          "name": "value",
          "type": "uint256"
        }
      ],
      "name": "Transfer",
      "type": "event"
    },
    {
      "anonymous": false,
      "inputs": [
        {
          "indexed": true,
          "internalType": "address",
          "name": "newAddress",
          "type": "address"
        },
        {
          "indexed": true,
          "internalType": "address",
          "name": "oldAddress",
          "type": "address"
        }
      ],
      "name": "UpdateDividendTracker",
      "type": "event"
    },
    {
      "anonymous": false,
      "inputs": [
        {
          "indexed": true,
          "internalType": "address",
          "name": "newAddress",
          "type": "address"
        },
        {
          "indexed": true,
          "internalType": "address",
          "name": "oldAddress",
          "type": "address"
        }
      ],
      "name": "UpdateUniswapV2Router",
      "type": "event"
    },
    {
      "inputs": [],
      "name": "USDTRewardsFee",
      "outputs": [
        {
          "internalType": "uint256",
          "name": "",
          "type": "uint256"
        }
      ],
      "stateMutability": "view",
      "type": "function"
    },
    {
      "inputs": [
        {
          "internalType": "address",
          "name": "",
          "type": "address"
        }
      ],
      "name": "_isBlacklisted",
      "outputs": [
        {
          "internalType": "bool",
          "name": "",
          "type": "bool"
        }
      ],
      "stateMutability": "view",
      "type": "function"
    },
    {
      "inputs": [],
      "name": "_marketingWalletAddress",
      "outputs": [
        {
          "internalType": "address",
          "name": "",
          "type": "address"
        }
      ],
      "stateMutability": "view",
      "type": "function"
    },
    {
      "inputs": [
        {
          "internalType": "address",
          "name": "owner",
          "type": "address"
        },
        {
          "internalType": "address",
          "name": "spender",
          "type": "address"
        }
      ],
      "name": "allowance",
      "outputs": [
        {
          "internalType": "uint256",
          "name": "",
          "type": "uint256"
        }
      ],
      "stateMutability": "view",
      "type": "function"
    },
    {
      "inputs": [
        {
          "internalType": "address",
          "name": "spender",
          "type": "address"
        },
        {
          "internalType": "uint256",
          "name": "amount",
          "type": "uint256"
        }
      ],
      "name": "approve",
      "outputs": [
        {
          "internalType": "bool",
          "name": "",
          "type": "bool"
        }
      ],
      "stateMutability": "nonpayable",
      "type": "function"
    },
    {
      "inputs": [
        {
          "internalType": "address",
          "name": "",
          "type": "address"
        }
      ],
      "name": "automatedMarketMakerPairs",
      "outputs": [
        {
          "internalType": "bool",
          "name": "",
          "type": "bool"
        }
      ],
      "stateMutability": "view",
      "type": "function"
    },
    {
      "inputs": [
        {
          "internalType": "address",
          "name": "account",
          "type": "address"
        }
      ],
      "name": "balanceOf",
      "outputs": [
        {
          "internalType": "uint256",
          "name": "",
          "type": "uint256"
        }
      ],
      "stateMutability": "view",
      "type": "function"
    },
    {
      "inputs": [
        {
          "internalType": "address",
          "name": "account",
          "type": "address"
        },
        {
          "internalType": "bool",
          "name": "value",
          "type": "bool"
        }
      ],
      "name": "blacklistAddress",
      "outputs": [],
      "stateMutability": "nonpayable",
      "type": "function"
    },
    {
      "inputs": [],
      "name": "claim",
      "outputs": [],
      "stateMutability": "nonpayable",
      "type": "function"
    },
    {
      "inputs": [
        {
          "internalType": "address",
          "name": "claimee",
          "type": "address"
        }
      ],
      "name": "claimAddress",
      "outputs": [],
      "stateMutability": "nonpayable",
      "type": "function"
    },
    {
      "inputs": [],
      "name": "contractBalanceToClaim",
      "outputs": [
        {
          "internalType": "uint256",
          "name": "",
          "type": "uint256"
        }
      ],
      "stateMutability": "view",
      "type": "function"
    },
    {
      "inputs": [],
      "name": "deadWallet",
      "outputs": [
        {
          "internalType": "address",
          "name": "",
          "type": "address"
        }
      ],
      "stateMutability": "view",
      "type": "function"
    },
    {
      "inputs": [],
      "name": "decimals",
      "outputs": [
        {
          "internalType": "uint8",
          "name": "",
          "type": "uint8"
        }
      ],
      "stateMutability": "view",
      "type": "function"
    },
    {
      "inputs": [
        {
          "internalType": "address",
          "name": "spender",
          "type": "address"
        },
        {
          "internalType": "uint256",
          "name": "subtractedValue",
          "type": "uint256"
        }
      ],
      "name": "decreaseAllowance",
      "outputs": [
        {
          "internalType": "bool",
          "name": "",
          "type": "bool"
        }
      ],
      "stateMutability": "nonpayable",
      "type": "function"
    },
    {
      "inputs": [
        {
          "internalType": "address",
          "name": "account",
          "type": "address"
        }
      ],
      "name": "dividendTokenBalanceOf",
      "outputs": [
        {
          "internalType": "uint256",
          "name": "",
          "type": "uint256"
        }
      ],
      "stateMutability": "view",
      "type": "function"
    },
    {
      "inputs": [],
      "name": "dividendTracker",
      "outputs": [
        {
          "internalType": "contract TrialDividendTracker",
          "name": "",
          "type": "address"
        }
      ],
      "stateMutability": "view",
      "type": "function"
    },
    {
      "inputs": [
        {
          "internalType": "address",
          "name": "account",
          "type": "address"
        }
      ],
      "name": "excludeFromDividends",
      "outputs": [],
      "stateMutability": "nonpayable",
      "type": "function"
    },
    {
      "inputs": [
        {
          "internalType": "address",
          "name": "account",
          "type": "address"
        },
        {
          "internalType": "bool",
          "name": "excluded",
          "type": "bool"
        }
      ],
      "name": "excludeFromMaxTx",
      "outputs": [],
      "stateMutability": "nonpayable",
      "type": "function"
    },
    {
      "inputs": [],
      "name": "gasForProcessing",
      "outputs": [
        {
          "internalType": "uint256",
          "name": "",
          "type": "uint256"
        }
      ],
      "stateMutability": "view",
      "type": "function"
    },
    {
      "inputs": [
        {
          "internalType": "address",
          "name": "account",
          "type": "address"
        }
      ],
      "name": "getAccountDividendsInfo",
      "outputs": [
        {
          "internalType": "address",
          "name": "",
          "type": "address"
        },
        {
          "internalType": "int256",
          "name": "",
          "type": "int256"
        },
        {
          "internalType": "int256",
          "name": "",
          "type": "int256"
        },
        {
          "internalType": "uint256",
          "name": "",
          "type": "uint256"
        },
        {
          "internalType": "uint256",
          "name": "",
          "type": "uint256"
        },
        {
          "internalType": "uint256",
          "name": "",
          "type": "uint256"
        },
        {
          "internalType": "uint256",
          "name": "",
          "type": "uint256"
        },
        {
          "internalType": "uint256",
          "name": "",
          "type": "uint256"
        }
      ],
      "stateMutability": "view",
      "type": "function"
    },
    {
      "inputs": [
        {
          "internalType": "uint256",
          "name": "index",
          "type": "uint256"
        }
      ],
      "name": "getAccountDividendsInfoAtIndex",
      "outputs": [
        {
          "internalType": "address",
          "name": "",
          "type": "address"
        },
        {
          "internalType": "int256",
          "name": "",
          "type": "int256"
        },
        {
          "internalType": "int256",
          "name": "",
          "type": "int256"
        },
        {
          "internalType": "uint256",
          "name": "",
          "type": "uint256"
        },
        {
          "internalType": "uint256",
          "name": "",
          "type": "uint256"
        },
        {
          "internalType": "uint256",
          "name": "",
          "type": "uint256"
        },
        {
          "internalType": "uint256",
          "name": "",
          "type": "uint256"
        },
        {
          "internalType": "uint256",
          "name": "",
          "type": "uint256"
        }
      ],
      "stateMutability": "view",
      "type": "function"
    },
    {
      "inputs": [],
      "name": "getClaimWait",
      "outputs": [
        {
          "internalType": "uint256",
          "name": "",
          "type": "uint256"
        }
      ],
      "stateMutability": "view",
      "type": "function"
    },
    {
      "inputs": [],
      "name": "getLastProcessedIndex",
      "outputs": [
        {
          "internalType": "uint256",
          "name": "",
          "type": "uint256"
        }
      ],
      "stateMutability": "view",
      "type": "function"
    },
    {
      "inputs": [],
      "name": "getNumberOfDividendTokenHolders",
      "outputs": [
        {
          "internalType": "uint256",
          "name": "",
          "type": "uint256"
        }
      ],
      "stateMutability": "view",
      "type": "function"
    },
    {
      "inputs": [],
      "name": "getTotalDividendsDistributed",
      "outputs": [
        {
          "internalType": "uint256",
          "name": "",
          "type": "uint256"
        }
      ],
      "stateMutability": "view",
      "type": "function"
    },
    {
      "inputs": [
        {
          "internalType": "address[]",
          "name": "accounts",
          "type": "address[]"
        },
        {
          "internalType": "bool",
          "name": "included",
          "type": "bool"
        }
      ],
      "name": "includeMultipleAccountsToFees",
      "outputs": [],
      "stateMutability": "nonpayable",
      "type": "function"
    },
    {
      "inputs": [
        {
          "internalType": "address",
          "name": "account",
          "type": "address"
        },
        {
          "internalType": "bool",
          "name": "included",
          "type": "bool"
        }
      ],
      "name": "includeToFees",
      "outputs": [],
      "stateMutability": "nonpayable",
      "type": "function"
    },
    {
      "inputs": [
        {
          "internalType": "address",
          "name": "spender",
          "type": "address"
        },
        {
          "internalType": "uint256",
          "name": "addedValue",
          "type": "uint256"
        }
      ],
      "name": "increaseAllowance",
      "outputs": [
        {
          "internalType": "bool",
          "name": "",
          "type": "bool"
        }
      ],
      "stateMutability": "nonpayable",
      "type": "function"
    },
    {
      "inputs": [
        {
          "internalType": "address",
          "name": "account",
          "type": "address"
        }
      ],
      "name": "isIncludedToFees",
      "outputs": [
        {
          "internalType": "bool",
          "name": "",
          "type": "bool"
        }
      ],
      "stateMutability": "view",
      "type": "function"
    },
    {
      "inputs": [],
      "name": "marketingFee",
      "outputs": [
        {
          "internalType": "uint256",
          "name": "",
          "type": "uint256"
        }
      ],
      "stateMutability": "view",
      "type": "function"
    },
    {
      "inputs": [],
      "name": "maxTxSize",
      "outputs": [
        {
          "internalType": "uint256",
          "name": "",
          "type": "uint256"
        }
      ],
      "stateMutability": "view",
      "type": "function"
    },
    {
      "inputs": [],
      "name": "name",
      "outputs": [
        {
          "internalType": "string",
          "name": "",
          "type": "string"
        }
      ],
      "stateMutability": "view",
      "type": "function"
    },
    {
      "inputs": [],
      "name": "owner",
      "outputs": [
        {
          "internalType": "address",
          "name": "",
          "type": "address"
        }
      ],
      "stateMutability": "view",
      "type": "function"
    },
    {
      "inputs": [
        {
          "internalType": "uint256",
          "name": "gas",
          "type": "uint256"
        }
      ],
      "name": "processDividendTracker",
      "outputs": [],
      "stateMutability": "nonpayable",
      "type": "function"
    },
    {
      "inputs": [],
      "name": "renounceOwnership",
      "outputs": [],
      "stateMutability": "nonpayable",
      "type": "function"
    },
    {
      "inputs": [
        {
          "internalType": "address",
          "name": "pair",
          "type": "address"
        },
        {
          "internalType": "bool",
          "name": "value",
          "type": "bool"
        }
      ],
      "name": "setAutomatedMarketMakerPair",
      "outputs": [],
      "stateMutability": "nonpayable",
      "type": "function"
    },
    {
      "inputs": [
        {
          "internalType": "uint256",
          "name": "index",
          "type": "uint256"
        }
      ],
      "name": "setLastProcessedIndex",
      "outputs": [],
      "stateMutability": "nonpayable",
      "type": "function"
    },
    {
      "inputs": [
        {
          "internalType": "uint256",
          "name": "value",
          "type": "uint256"
        }
      ],
      "name": "setMarketingFee",
      "outputs": [],
      "stateMutability": "nonpayable",
      "type": "function"
    },
    {
      "inputs": [
        {
          "internalType": "address payable",
          "name": "wallet",
          "type": "address"
        }
      ],
      "name": "setMarketingWallet",
      "outputs": [],
      "stateMutability": "nonpayable",
      "type": "function"
    },
    {
      "inputs": [
        {
          "internalType": "uint256",
          "name": "_maxTxSize",
          "type": "uint256"
        }
      ],
      "name": "setMaxTxSize",
      "outputs": [],
      "stateMutability": "nonpayable",
      "type": "function"
    },
    {
      "inputs": [
        {
          "internalType": "uint256",
          "name": "_newValue",
          "type": "uint256"
        }
      ],
      "name": "setMinimumTokenBalanceForDividends",
      "outputs": [],
      "stateMutability": "nonpayable",
      "type": "function"
    },
    {
      "inputs": [
        {
          "internalType": "address",
          "name": "_token",
          "type": "address"
        }
      ],
      "name": "setRewardToken",
      "outputs": [],
      "stateMutability": "nonpayable",
      "type": "function"
    },
    {
      "inputs": [
        {
          "internalType": "uint256",
          "name": "amount",
          "type": "uint256"
        }
      ],
      "name": "setSwapTokensAtAmount",
      "outputs": [],
      "stateMutability": "nonpayable",
      "type": "function"
    },
    {
      "inputs": [
        {
          "internalType": "uint256",
          "name": "value",
          "type": "uint256"
        }
      ],
      "name": "setUSDTRewardsFee",
      "outputs": [],
      "stateMutability": "nonpayable",
      "type": "function"
    },
    {
      "inputs": [
        {
          "internalType": "bool",
          "name": "sendToFee",
          "type": "bool"
        },
        {
          "internalType": "bool",
          "name": "sendDividends",
          "type": "bool"
        }
      ],
      "name": "swapOnDemand",
      "outputs": [],
      "stateMutability": "nonpayable",
      "type": "function"
    },
    {
      "inputs": [],
      "name": "swapTokensAtAmount",
      "outputs": [
        {
          "internalType": "uint256",
          "name": "",
          "type": "uint256"
        }
      ],
      "stateMutability": "view",
      "type": "function"
    },
    {
      "inputs": [],
      "name": "symbol",
      "outputs": [
        {
          "internalType": "string",
          "name": "",
          "type": "string"
        }
      ],
      "stateMutability": "view",
      "type": "function"
    },
    {
      "inputs": [],
      "name": "testFlag",
      "outputs": [
        {
          "internalType": "bool",
          "name": "",
          "type": "bool"
        }
      ],
      "stateMutability": "view",
      "type": "function"
    },
    {
      "inputs": [],
      "name": "totalFees",
      "outputs": [
        {
          "internalType": "uint256",
          "name": "",
          "type": "uint256"
        }
      ],
      "stateMutability": "view",
      "type": "function"
    },
    {
      "inputs": [],
      "name": "totalSupply",
      "outputs": [
        {
          "internalType": "uint256",
          "name": "",
          "type": "uint256"
        }
      ],
      "stateMutability": "view",
      "type": "function"
    },
    {
      "inputs": [
        {
          "internalType": "address",
          "name": "recipient",
          "type": "address"
        },
        {
          "internalType": "uint256",
          "name": "amount",
          "type": "uint256"
        }
      ],
      "name": "transfer",
      "outputs": [
        {
          "internalType": "bool",
          "name": "",
          "type": "bool"
        }
      ],
      "stateMutability": "nonpayable",
      "type": "function"
    },
    {
      "inputs": [
        {
          "internalType": "address",
          "name": "sender",
          "type": "address"
        },
        {
          "internalType": "address",
          "name": "recipient",
          "type": "address"
        },
        {
          "internalType": "uint256",
          "name": "amount",
          "type": "uint256"
        }
      ],
      "name": "transferFrom",
      "outputs": [
        {
          "internalType": "bool",
          "name": "",
          "type": "bool"
        }
      ],
      "stateMutability": "nonpayable",
      "type": "function"
    },
    {
      "inputs": [
        {
          "internalType": "address",
          "name": "newOwner",
          "type": "address"
        }
      ],
      "name": "transferOwnership",
      "outputs": [],
      "stateMutability": "nonpayable",
      "type": "function"
    },
    {
      "inputs": [],
      "name": "uniswapV2Pair",
      "outputs": [
        {
          "internalType": "address",
          "name": "",
          "type": "address"
        }
      ],
      "stateMutability": "view",
      "type": "function"
    },
    {
      "inputs": [],
      "name": "uniswapV2Router",
      "outputs": [
        {
          "internalType": "contract IUniswapV2Router02",
          "name": "",
          "type": "address"
        }
      ],
      "stateMutability": "view",
      "type": "function"
    },
    {
      "inputs": [
        {
          "internalType": "uint256",
          "name": "claimWait",
          "type": "uint256"
        }
      ],
      "name": "updateClaimWait",
      "outputs": [],
      "stateMutability": "nonpayable",
      "type": "function"
    },
    {
      "inputs": [
        {
          "internalType": "address",
          "name": "newAddress",
          "type": "address"
        }
      ],
      "name": "updateDividendTracker",
      "outputs": [],
      "stateMutability": "nonpayable",
      "type": "function"
    },
    {
      "inputs": [
        {
          "internalType": "uint256",
          "name": "newValue",
          "type": "uint256"
        }
      ],
      "name": "updateGasForProcessing",
      "outputs": [],
      "stateMutability": "nonpayable",
      "type": "function"
    },
    {
      "inputs": [
        {
          "internalType": "address",
          "name": "newAddress",
          "type": "address"
        }
      ],
      "name": "updateUniswapV2Router",
      "outputs": [],
      "stateMutability": "nonpayable",
      "type": "function"
    },
    {
      "inputs": [
        {
          "internalType": "address",
          "name": "account",
          "type": "address"
        }
      ],
      "name": "withdrawableDividendOf",
      "outputs": [
        {
          "internalType": "uint256",
          "name": "",
          "type": "uint256"
        }
      ],
      "stateMutability": "view",
      "type": "function"
    },
    {
      "stateMutability": "payable",
      "type": "receive"
    }
  ],
  "bytecode": "0x60806040526009805461dead6001600160a01b031990911617905569021e19e0c9bab2400000600b55691fc3842bd1f071c00000600c556007600f819055600360108190556200005c9190620006f9602090811b62002a9b17901c565b601155601280546001600160a01b031916730f2e51f6feb7b23f53e22ce0cfe1ddf8edb67e98179055620493e06013556017805460ff19169055348015620000a357600080fd5b5060405162006ec938038062006ec983398181016040526040811015620000c957600080fd5b50805160209182015160408051808201825260058082526413d313d25160da1b828701818152845180860190955291845295830195909552805193949293909262000118916003919062000b58565b5080516200012e90600490602084019062000b58565b5050506000620001436200075b60201b60201c565b600580546001600160a01b0319166001600160a01b038316908117909155604051919250906000907f8be0079c531659141344cd1fd0a4f28419497f9722a3daafe3b4186f6b6457e0908290a3506040516200019f9062000bdd565b604051809103906000f080158015620001bc573d6000803e3d6000fd5b50600860006101000a8154816001600160a01b0302191690836001600160a01b0316021790555060008290506000816001600160a01b031663c45a01556040518163ffffffff1660e01b815260040160206040518083038186803b1580156200022457600080fd5b505afa15801562000239573d6000803e3d6000fd5b505050506040513d60208110156200025057600080fd5b5051604080516315ab88c960e31b815290516001600160a01b039283169263c9c653969230929187169163ad5c464891600480820192602092909190829003018186803b158015620002a157600080fd5b505afa158015620002b6573d6000803e3d6000fd5b505050506040513d6020811015620002cd57600080fd5b5051604080516001600160e01b031960e086901b1681526001600160a01b0393841660048201529290911660248301525160448083019260209291908290030181600087803b1580156200032057600080fd5b505af115801562000335573d6000803e3d6000fd5b505050506040513d60208110156200034c57600080fd5b5051600680546001600160a01b038086166001600160a01b031992831617909255600780549284169290911691909117905590506200038d8160016200075f565b600a80546001600160a01b0319166001600160a01b038581169190911791829055600854604080516350c1b92360e01b81529383166004850152519116916350c1b92391602480830192600092919082900301818387803b158015620003f257600080fd5b505af115801562000407573d6000803e3d6000fd5b50506008546040805163031e79db60e41b81526001600160a01b039092166004830181905290519093506331e79db09250602480830192600092919082900301818387803b1580156200045957600080fd5b505af11580156200046e573d6000803e3d6000fd5b50506008546040805163031e79db60e41b815230600482015290516001600160a01b0390921693506331e79db0925060248082019260009290919082900301818387803b158015620004bf57600080fd5b505af1158015620004d4573d6000803e3d6000fd5b50506008546001600160a01b031691506331e79db09050620004f562000892565b6040518263ffffffff1660e01b815260040180826001600160a01b03168152602001915050600060405180830381600087803b1580156200053557600080fd5b505af11580156200054a573d6000803e3d6000fd5b50506008546009546040805163031e79db60e41b81526001600160a01b03928316600482015290519190921693506331e79db09250602480830192600092919082900301818387803b158015620005a057600080fd5b505af1158015620005b5573d6000803e3d6000fd5b50506008546040805163031e79db60e41b81526001600160a01b03878116600483015291519190921693506331e79db09250602480830192600092919082900301818387803b1580156200060857600080fd5b505af11580156200061d573d6000803e3d6000fd5b50506008546012546040805163031e79db60e41b81526001600160a01b03928316600482015290519190921693506331e79db09250602480830192600092919082900301818387803b1580156200067357600080fd5b505af115801562000688573d6000803e3d6000fd5b50505050620006a8620006a06200089260201b60201c565b6001620008a1565b620006b5306001620008a1565b620006c282600162000928565b620006cf81600162000928565b620006ef620006dd62000892565b6a1a31ad675434ed2568000062000a44565b5050505062000c02565b60008282018381101562000754576040805162461bcd60e51b815260206004820152601b60248201527f536166654d6174683a206164646974696f6e206f766572666c6f770000000000604482015290519081900360640190fd5b9392505050565b3390565b6001600160a01b03821660009081526016602052604090205460ff1615158115151415620007bf5760405162461bcd60e51b815260040180806020018281038252603f81526020018062006e8a603f913960400191505060405180910390fd5b6001600160a01b0382166000908152601660205260409020805460ff1916821580159190911790915562000856576008546040805163031e79db60e41b81526001600160a01b038581166004830152915191909216916331e79db091602480830192600092919082900301818387803b1580156200083c57600080fd5b505af115801562000851573d6000803e3d6000fd5b505050505b604051811515906001600160a01b038416907fffa9187bf1f18bf477bd0ea1bcbb64e93b6a98132473929edfce215cd9b16fab90600090a35050565b6005546001600160a01b031690565b620008ab6200075b565b6005546001600160a01b03908116911614620008fd576040805162461bcd60e51b8152602060048201819052602482015260008051602062006e6a833981519152604482015290519081900360640190fd5b6001600160a01b03919091166000908152601560205260409020805460ff1916911515919091179055565b620009326200075b565b6005546001600160a01b0390811691161462000984576040805162461bcd60e51b8152602060048201819052602482015260008051602062006e6a833981519152604482015290519081900360640190fd5b6001600160a01b03821660009081526014602052604090205460ff1615158115151415620009e45760405162461bcd60e51b815260040180806020018281038252603181526020018062006e396031913960400191505060405180910390fd5b6001600160a01b038216600081815260146020908152604091829020805460ff1916851515908117909155825190815291517f8719e853e7387f0e074871937c6a953bfa7dc7704dc71e985b529833908e6c069281900390910190a25050565b6001600160a01b03821662000aa0576040805162461bcd60e51b815260206004820152601f60248201527f45524332303a206d696e7420746f20746865207a65726f206164647265737300604482015290519081900360640190fd5b62000aae6000838362000b53565b62000aca81600254620006f960201b62002a9b1790919060201c565b6002556001600160a01b0382166000908152602081815260409091205462000afd91839062002a9b620006f9821b17901c565b6001600160a01b0383166000818152602081815260408083209490945583518581529351929391927fddf252ad1be2c89b69c2b068fc378daa952ba7f163c4a11628f55a4df523b3ef9281900390910190a35050565b505050565b828054600181600116156101000203166002900490600052602060002090601f016020900481019282601f1062000b9b57805160ff191683800117855562000bcb565b8280016001018555821562000bcb579182015b8281111562000bcb57825182559160200191906001019062000bae565b5062000bd992915062000beb565b5090565b6123d18062004a6883390190565b5b8082111562000bd9576000815560010162000bec565b613e568062000c126000396000f3fe60806040526004361061039b5760003560e01c80637e150d66116101dc578063a9059cbb11610102578063ce2fea33116100a0578063e7841ec01161006f578063e7841ec014610d8c578063e98030c714610da1578063f27fd25414610dcb578063f2fde38b14610df5576103a2565b8063ce2fea3314610cd7578063d4c989d314610d01578063dd62ed3e14610d3c578063e2f4560514610d77576103a2565b8063afa4f3b2116100dc578063afa4f3b214610c3b578063b62496f514610c65578063c0d78d8714610c98578063c68bb7ba14610cad576103a2565b8063a9059cbb14610b51578063ab9d284a14610b8a578063ad56c13c14610bbd576103a2565b806395d89b411161017a578063a26579ad11610149578063a26579ad14610a95578063a29dad9814610aaa578063a457c2d714610ae5578063a8b9d24014610b1e576103a2565b806395d89b41146109b15780639a7a23d6146109c65780639c1b8af514610a015780639c8c4a0414610a16576103a2565b8063871c128d116101b6578063871c128d1461090c57806388bdd9be146109365780638aee8127146109695780638da5cb5b1461099c576103a2565b80637e150d66146108cd57806381b5e27d146108e257806385141a77146108f7576103a2565b80633f249df0116102c1578063625e764c1161025f5780636b67c4df1161022e5780636b67c4df14610846578063700bb1911461085b57806370a0823114610885578063715018a6146108b8576103a2565b8063625e764c146107a157806364b0f653146107cb57806365b8dbc0146107e05780636843cd8414610813576103a2565b806349bd5a5e1161029b57806349bd5a5e1461071a5780634e71d92d1461072f5780635d098b38146107445780635ebf4db914610777576103a2565b80633f249df0146106975780634144d9e4146106ca578063455a4396146106df576103a2565b80631cdd3be31161033957806330bb4cff1161030857806330bb4cff146105eb578063313ce5671461060057806331e79db01461062b578063395093511461065e576103a2565b80631cdd3be31461053657806323b872dd14610569578063286b3aa0146105ac5780632c1f5216146105d6576103a2565b806313114a9d1161037557806313114a9d146104a557806314dad69b146104ba5780631694505e146104f057806318160ddd14610521576103a2565b806306fdde03146103a7578063095ea7b314610431578063099c9a601461047e576103a2565b366103a257005b600080fd5b3480156103b357600080fd5b506103bc610e28565b6040805160208082528351818301528351919283929083019185019080838360005b838110156103f65781810151838201526020016103de565b50505050905090810190601f1680156104235780820380516001836020036101000a031916815260200191505b509250505060405180910390f35b34801561043d57600080fd5b5061046a6004803603604081101561045457600080fd5b506001600160a01b038135169060200135610ebe565b604080519115158252519081900360200190f35b34801561048a57600080fd5b50610493610edc565b60408051918252519081900360200190f35b3480156104b157600080fd5b50610493610ee2565b3480156104c657600080fd5b506104ee600480360360408110156104dd57600080fd5b508035151590602001351515610ee8565b005b3480156104fc57600080fd5b50610505610fc6565b604080516001600160a01b039092168252519081900360200190f35b34801561052d57600080fd5b50610493610fd5565b34801561054257600080fd5b5061046a6004803603602081101561055957600080fd5b50356001600160a01b0316610fdb565b34801561057557600080fd5b5061046a6004803603606081101561058c57600080fd5b506001600160a01b03813581169160208101359091169060400135610ff0565b3480156105b857600080fd5b506104ee600480360360208110156105cf57600080fd5b5035611077565b3480156105e257600080fd5b50610505611137565b3480156105f757600080fd5b50610493611146565b34801561060c57600080fd5b506106156111bc565b6040805160ff9092168252519081900360200190f35b34801561063757600080fd5b506104ee6004803603602081101561064e57600080fd5b50356001600160a01b03166111c1565b34801561066a57600080fd5b5061046a6004803603604081101561068157600080fd5b506001600160a01b038135169060200135611267565b3480156106a357600080fd5b506104ee600480360360208110156106ba57600080fd5b50356001600160a01b03166112b5565b3480156106d657600080fd5b50610505611394565b3480156106eb57600080fd5b506104ee6004803603604081101561070257600080fd5b506001600160a01b03813516906020013515156113a3565b34801561072657600080fd5b50610505611426565b34801561073b57600080fd5b506104ee611435565b34801561075057600080fd5b506104ee6004803603602081101561076757600080fd5b50356001600160a01b03166114ba565b34801561078357600080fd5b506104ee6004803603602081101561079a57600080fd5b5035611534565b3480156107ad57600080fd5b506104ee600480360360208110156107c457600080fd5b50356115d9565b3480156107d757600080fd5b50610493611649565b3480156107ec57600080fd5b506104ee6004803603602081101561080357600080fd5b50356001600160a01b031661168e565b34801561081f57600080fd5b506104936004803603602081101561083657600080fd5b50356001600160a01b0316611913565b34801561085257600080fd5b50610493611996565b34801561086757600080fd5b506104ee6004803603602081101561087e57600080fd5b503561199c565b34801561089157600080fd5b50610493600480360360208110156108a857600080fd5b50356001600160a01b0316611a83565b3480156108c457600080fd5b506104ee611a9e565b3480156108d957600080fd5b50610493611b40565b3480156108ee57600080fd5b50610493611b46565b34801561090357600080fd5b50610505611b4c565b34801561091857600080fd5b506104ee6004803603602081101561092f57600080fd5b5035611b5b565b34801561094257600080fd5b506104ee6004803603602081101561095957600080fd5b50356001600160a01b0316611c78565b34801561097557600080fd5b506104ee6004803603602081101561098c57600080fd5b50356001600160a01b0316612035565b3480156109a857600080fd5b506105056120f0565b3480156109bd57600080fd5b506103bc6120ff565b3480156109d257600080fd5b506104ee600480360360408110156109e957600080fd5b506001600160a01b0381351690602001351515612160565b348015610a0d57600080fd5b5061049361220f565b348015610a2257600080fd5b506104ee60048036036040811015610a3957600080fd5b810190602081018135640100000000811115610a5457600080fd5b820183602082011115610a6657600080fd5b80359060200191846020830284011164010000000083111715610a8857600080fd5b9193509150351515612215565b348015610aa157600080fd5b50610493612335565b348015610ab657600080fd5b506104ee60048036036040811015610acd57600080fd5b506001600160a01b038135169060200135151561237a565b348015610af157600080fd5b5061046a60048036036040811015610b0857600080fd5b506001600160a01b038135169060200135612490565b348015610b2a57600080fd5b5061049360048036036020811015610b4157600080fd5b50356001600160a01b03166124f8565b348015610b5d57600080fd5b5061046a60048036036040811015610b7457600080fd5b506001600160a01b038135169060200135612549565b348015610b9657600080fd5b5061046a60048036036020811015610bad57600080fd5b50356001600160a01b031661255d565b348015610bc957600080fd5b50610bf060048036036020811015610be057600080fd5b50356001600160a01b031661257b565b604080516001600160a01b0390991689526020890197909752878701959095526060870193909352608086019190915260a085015260c084015260e083015251908190036101000190f35b348015610c4757600080fd5b506104ee60048036036020811015610c5e57600080fd5b503561265b565b348015610c7157600080fd5b5061046a60048036036020811015610c8857600080fd5b50356001600160a01b03166126b8565b348015610ca457600080fd5b5061046a6126cd565b348015610cb957600080fd5b506104ee60048036036020811015610cd057600080fd5b50356126d6565b348015610ce357600080fd5b506104ee60048036036020811015610cfa57600080fd5b5035612733565b348015610d0d57600080fd5b506104ee60048036036040811015610d2457600080fd5b506001600160a01b038135169060200135151561279e565b348015610d4857600080fd5b5061049360048036036040811015610d5f57600080fd5b506001600160a01b0381358116916020013516612821565b348015610d8357600080fd5b5061049361284c565b348015610d9857600080fd5b50610493612852565b348015610dad57600080fd5b506104ee60048036036020811015610dc457600080fd5b5035612897565b348015610dd757600080fd5b50610bf060048036036020811015610dee57600080fd5b503561293c565b348015610e0157600080fd5b506104ee60048036036020811015610e1857600080fd5b50356001600160a01b03166129a2565b60038054604080516020601f6002600019610100600188161502019095169490940493840181900481028201810190925282815260609390929091830182828015610eb45780601f10610e8957610100808354040283529160200191610eb4565b820191906000526020600020905b815481529060010190602001808311610e9757829003601f168201915b5050505050905090565b6000610ed2610ecb612afc565b8484612b00565b5060015b92915050565b600d5481565b60115481565b610ef0612afc565b6005546001600160a01b03908116911614610f40576040805162461bcd60e51b81526020600482018190526024820152600080516020613d2d833981519152604482015290519081900360640190fd5b6007805460ff60a01b1916600160a01b1790556000610f5e30611a83565b90508215610f96576000610f89601154610f8360105485612bec90919063ffffffff16565b90612c45565b9050610f9481612c87565b505b8115610fb4576000610fa730611a83565b9050610fb281612e14565b505b50506007805460ff60a01b1916905550565b6006546001600160a01b031681565b60025490565b600e6020526000908152604090205460ff1681565b6000610ffd848484612fcb565b61106d84611009612afc565b61106885604051806060016040528060288152602001613d05602891396001600160a01b038a16600090815260016020526040812090611047612afc565b6001600160a01b03168152602081019190915260400160002054919061351f565b612b00565b5060019392505050565b61107f612afc565b6005546001600160a01b039081169116146110cf576040805162461bcd60e51b81526020600482018190526024820152600080516020613d2d833981519152604482015290519081900360640190fd5b6008546040805163014359d560e51b81526004810184905290516001600160a01b039092169163286b3aa09160248082019260009290919082900301818387803b15801561111c57600080fd5b505af1158015611130573d6000803e3d6000fd5b5050505050565b6008546001600160a01b031681565b600854604080516342d359d760e11b815290516000926001600160a01b0316916385a6b3ae916004808301926020929190829003018186803b15801561118b57600080fd5b505afa15801561119f573d6000803e3d6000fd5b505050506040513d60208110156111b557600080fd5b5051905090565b601290565b6111c9612afc565b6005546001600160a01b03908116911614611219576040805162461bcd60e51b81526020600482018190526024820152600080516020613d2d833981519152604482015290519081900360640190fd5b6008546040805163031e79db60e41b81526001600160a01b038481166004830152915191909216916331e79db091602480830192600092919082900301818387803b15801561111c57600080fd5b6000610ed2611274612afc565b846110688560016000611285612afc565b6001600160a01b03908116825260208083019390935260409182016000908120918c168152925290205490612a9b565b6112bd612afc565b6005546001600160a01b0390811691161461130d576040805162461bcd60e51b81526020600482018190526024820152600080516020613d2d833981519152604482015290519081900360640190fd5b6008546040805163bc4c4b3760e01b81526001600160a01b038481166004830152600060248301819052925193169263bc4c4b3792604480840193602093929083900390910190829087803b15801561136557600080fd5b505af1158015611379573d6000803e3d6000fd5b505050506040513d602081101561138f57600080fd5b505050565b6012546001600160a01b031681565b6113ab612afc565b6005546001600160a01b039081169116146113fb576040805162461bcd60e51b81526020600482018190526024820152600080516020613d2d833981519152604482015290519081900360640190fd5b6001600160a01b03919091166000908152600e60205260409020805460ff1916911515919091179055565b6007546001600160a01b031681565b6008546040805163bc4c4b3760e01b815233600482015260006024820181905291516001600160a01b039093169263bc4c4b3792604480840193602093929083900390910190829087803b15801561148c57600080fd5b505af11580156114a0573d6000803e3d6000fd5b505050506040513d60208110156114b657600080fd5b5050565b6114c2612afc565b6005546001600160a01b03908116911614611512576040805162461bcd60e51b81526020600482018190526024820152600080516020613d2d833981519152604482015290519081900360640190fd5b601280546001600160a01b0319166001600160a01b0392909216919091179055565b61153c612afc565b6005546001600160a01b0390811691161461158c576040805162461bcd60e51b81526020600482018190526024820152600080516020613d2d833981519152604482015290519081900360640190fd5b60085460408051630dcb2e8960e01b81526004810184905290516001600160a01b0390921691630dcb2e899160248082019260009290919082900301818387803b15801561111c57600080fd5b6115e1612afc565b6005546001600160a01b03908116911614611631576040805162461bcd60e51b81526020600482018190526024820152600080516020613d2d833981519152604482015290519081900360640190fd5b6010819055600f546116439082612a9b565b60115550565b600854604080516304ddf6ef60e11b815290516000926001600160a01b0316916309bbedde916004808301926020929190829003018186803b15801561118b57600080fd5b611696612afc565b6005546001600160a01b039081169116146116e6576040805162461bcd60e51b81526020600482018190526024820152600080516020613d2d833981519152604482015290519081900360640190fd5b6006546001600160a01b03828116911614156117335760405162461bcd60e51b815260040180806020018281038252602a815260200180613bb4602a913960400191505060405180910390fd5b6006546040516001600160a01b03918216918316907f8fc842bbd331dfa973645f4ed48b11683d501ebf1352708d77a5da2ab49a576e90600090a3600680546001600160a01b0319166001600160a01b0383811691909117918290556040805163c45a015560e01b815290516000939092169163c45a015591600480820192602092909190829003018186803b1580156117cc57600080fd5b505afa1580156117e0573d6000803e3d6000fd5b505050506040513d60208110156117f657600080fd5b5051600654604080516315ab88c960e31b815290516001600160a01b039384169363c9c6539693309391169163ad5c464891600480820192602092909190829003018186803b15801561184857600080fd5b505afa15801561185c573d6000803e3d6000fd5b505050506040513d602081101561187257600080fd5b5051604080516001600160e01b031960e086901b1681526001600160a01b0393841660048201529290911660248301525160448083019260209291908290030181600087803b1580156118c457600080fd5b505af11580156118d8573d6000803e3d6000fd5b505050506040513d60208110156118ee57600080fd5b5051600780546001600160a01b0319166001600160a01b039092169190911790555050565b600854604080516370a0823160e01b81526001600160a01b038481166004830152915160009392909216916370a0823191602480820192602092909190829003018186803b15801561196457600080fd5b505afa158015611978573d6000803e3d6000fd5b505050506040513d602081101561198e57600080fd5b505192915050565b60105481565b600854604080516001624d3b8760e01b03198152600481018490529051600092839283926001600160a01b039092169163ffb2c4799160248082019260609290919082900301818787803b1580156119f357600080fd5b505af1158015611a07573d6000803e3d6000fd5b505050506040513d6060811015611a1d57600080fd5b5080516020808301516040938401518451848152928301829052828501819052606083018990529351929650945091925032916000917fc864333d6121033635ab41b29ae52f10a22cf4438c3e4f1c4c68518feb2f8a989181900360800190a350505050565b6001600160a01b031660009081526020819052604090205490565b611aa6612afc565b6005546001600160a01b03908116911614611af6576040805162461bcd60e51b81526020600482018190526024820152600080516020613d2d833981519152604482015290519081900360640190fd5b6005546040516000916001600160a01b0316907f8be0079c531659141344cd1fd0a4f28419497f9722a3daafe3b4186f6b6457e0908390a3600580546001600160a01b0319169055565b600c5481565b600f5481565b6009546001600160a01b031681565b611b63612afc565b6005546001600160a01b03908116911614611bb3576040805162461bcd60e51b81526020600482018190526024820152600080516020613d2d833981519152604482015290519081900360640190fd5b62030d408110158015611bc957506207a1208111155b611c045760405162461bcd60e51b815260040180806020018281038252603b815260200180613ae5603b913960400191505060405180910390fd5b601354811415611c455760405162461bcd60e51b8152600401808060200182810382526033815260200180613c7d6033913960400191505060405180910390fd5b60135460405182907f40d7e40e79af4e8e5a9b3c57030d8ea93f13d669c06d448c4d631d4ae7d23db790600090a3601355565b611c80612afc565b6005546001600160a01b03908116911614611cd0576040805162461bcd60e51b81526020600482018190526024820152600080516020613d2d833981519152604482015290519081900360640190fd5b6008546001600160a01b0382811691161415611d1d5760405162461bcd60e51b8152600401808060200182810382526034815260200180613cd16034913960400191505060405180910390fd5b6000819050306001600160a01b0316816001600160a01b0316638da5cb5b6040518163ffffffff1660e01b815260040160206040518083038186803b158015611d6557600080fd5b505afa158015611d79573d6000803e3d6000fd5b505050506040513d6020811015611d8f57600080fd5b50516001600160a01b031614611dd65760405162461bcd60e51b8152600401808060200182810382526048815260200180613c0f6048913960600191505060405180910390fd5b806001600160a01b03166331e79db0826040518263ffffffff1660e01b815260040180826001600160a01b03168152602001915050600060405180830381600087803b158015611e2557600080fd5b505af1158015611e39573d6000803e3d6000fd5b50506040805163031e79db60e41b815230600482015290516001600160a01b03851693506331e79db09250602480830192600092919082900301818387803b158015611e8457600080fd5b505af1158015611e98573d6000803e3d6000fd5b50505050806001600160a01b03166331e79db0611eb36120f0565b6040518263ffffffff1660e01b815260040180826001600160a01b03168152602001915050600060405180830381600087803b158015611ef257600080fd5b505af1158015611f06573d6000803e3d6000fd5b50506009546040805163031e79db60e41b81526001600160a01b039283166004820152905191851693506331e79db0925060248082019260009290919082900301818387803b158015611f5857600080fd5b505af1158015611f6c573d6000803e3d6000fd5b50506006546040805163031e79db60e41b81526001600160a01b039283166004820152905191851693506331e79db0925060248082019260009290919082900301818387803b158015611fbe57600080fd5b505af1158015611fd2573d6000803e3d6000fd5b50506008546040516001600160a01b03918216935090851691507f90c7d74461c613da5efa97d90740869367d74ab3aa5837aa4ae9a975f954b7a890600090a3600880546001600160a01b0319166001600160a01b039290921691909117905550565b61203d612afc565b6005546001600160a01b0390811691161461208d576040805162461bcd60e51b81526020600482018190526024820152600080516020613d2d833981519152604482015290519081900360640190fd5b600a80546001600160a01b0319166001600160a01b03838116918217909255600854604080516350c1b92360e01b81526004810193909352519216916350c1b9239160248082019260009290919082900301818387803b15801561111c57600080fd5b6005546001600160a01b031690565b60048054604080516020601f6002600019610100600188161502019095169490940493840181900481028201810190925282815260609390929091830182828015610eb45780601f10610e8957610100808354040283529160200191610eb4565b612168612afc565b6005546001600160a01b039081169116146121b8576040805162461bcd60e51b81526020600482018190526024820152600080516020613d2d833981519152604482015290519081900360640190fd5b6007546001600160a01b03838116911614156122055760405162461bcd60e51b815260040180806020018281038252604c815260200180613b20604c913960600191505060405180910390fd5b6114b682826135b6565b60135481565b61221d612afc565b6005546001600160a01b0390811691161461226d576040805162461bcd60e51b81526020600482018190526024820152600080516020613d2d833981519152604482015290519081900360640190fd5b60005b828110156122c257816014600086868581811061228957fe5b602090810292909201356001600160a01b0316835250810191909152604001600020805460ff1916911515919091179055600101612270565b507f1c5e0dcd054421005543b80094a140076296af7f37b29b7cc57bf720b23093b3838383604051808060200183151581526020018281038252858582818152602001925060200280828437600083820152604051601f909101601f1916909201829003965090945050505050a1505050565b60085460408051631bc9e27b60e21b815290516000926001600160a01b031691636f2789ec916004808301926020929190829003018186803b15801561118b57600080fd5b612382612afc565b6005546001600160a01b039081169116146123d2576040805162461bcd60e51b81526020600482018190526024820152600080516020613d2d833981519152604482015290519081900360640190fd5b6001600160a01b03821660009081526014602052604090205460ff16151581151514156124305760405162461bcd60e51b8152600401808060200182810382526031815260200180613bde6031913960400191505060405180910390fd5b6001600160a01b038216600081815260146020908152604091829020805460ff1916851515908117909155825190815291517f8719e853e7387f0e074871937c6a953bfa7dc7704dc71e985b529833908e6c069281900390910190a25050565b6000610ed261249d612afc565b8461106885604051806060016040528060258152602001613dfc60259139600160006124c7612afc565b6001600160a01b03908116825260208083019390935260409182016000908120918d1681529252902054919061351f565b600854604080516302a2e74960e61b81526001600160a01b0384811660048301529151600093929092169163a8b9d24091602480820192602092909190829003018186803b15801561196457600080fd5b6000610ed2612556612afc565b8484612fcb565b6001600160a01b031660009081526014602052604090205460ff1690565b600080600080600080600080600860009054906101000a90046001600160a01b03166001600160a01b031663fbcbc0f18a6040518263ffffffff1660e01b815260040180826001600160a01b031681526020019150506101006040518083038186803b1580156125ea57600080fd5b505afa1580156125fe573d6000803e3d6000fd5b505050506040513d61010081101561261557600080fd5b508051602082015160408301516060840151608085015160a086015160c087015160e090970151959e50939c50919a509850965094509092509050919395975091939597565b612663612afc565b6005546001600160a01b039081169116146126b3576040805162461bcd60e51b81526020600482018190526024820152600080516020613d2d833981519152604482015290519081900360640190fd5b600b55565b60166020526000908152604090205460ff1681565b60175460ff1681565b6126de612afc565b6005546001600160a01b0390811691161461272e576040805162461bcd60e51b81526020600482018190526024820152600080516020613d2d833981519152604482015290519081900360640190fd5b600c55565b61273b612afc565b6005546001600160a01b0390811691161461278b576040805162461bcd60e51b81526020600482018190526024820152600080516020613d2d833981519152604482015290519081900360640190fd5b600f819055601054611643908290612a9b565b6127a6612afc565b6005546001600160a01b039081169116146127f6576040805162461bcd60e51b81526020600482018190526024820152600080516020613d2d833981519152604482015290519081900360640190fd5b6001600160a01b03919091166000908152601560205260409020805460ff1916911515919091179055565b6001600160a01b03918216600090815260016020908152604080832093909416825291909152205490565b600b5481565b6008546040805163039e107b60e61b815290516000926001600160a01b03169163e7841ec0916004808301926020929190829003018186803b15801561118b57600080fd5b61289f612afc565b6005546001600160a01b039081169116146128ef576040805162461bcd60e51b81526020600482018190526024820152600080516020613d2d833981519152604482015290519081900360640190fd5b6008546040805163e98030c760e01b81526004810184905290516001600160a01b039092169163e98030c79160248082019260009290919082900301818387803b15801561111c57600080fd5b600080600080600080600080600860009054906101000a90046001600160a01b03166001600160a01b0316635183d6fd8a6040518263ffffffff1660e01b8152600401808281526020019150506101006040518083038186803b1580156125ea57600080fd5b6129aa612afc565b6005546001600160a01b039081169116146129fa576040805162461bcd60e51b81526020600482018190526024820152600080516020613d2d833981519152604482015290519081900360640190fd5b6001600160a01b038116612a3f5760405162461bcd60e51b8152600401808060200182810382526026815260200180613b6c6026913960400191505060405180910390fd5b6005546040516001600160a01b038084169216907f8be0079c531659141344cd1fd0a4f28419497f9722a3daafe3b4186f6b6457e090600090a3600580546001600160a01b0319166001600160a01b0392909216919091179055565b600082820183811015612af5576040805162461bcd60e51b815260206004820152601b60248201527f536166654d6174683a206164646974696f6e206f766572666c6f770000000000604482015290519081900360640190fd5b9392505050565b3390565b6001600160a01b038316612b455760405162461bcd60e51b8152600401808060200182810382526024815260200180613d726024913960400191505060405180910390fd5b6001600160a01b038216612b8a5760405162461bcd60e51b8152600401808060200182810382526022815260200180613b926022913960400191505060405180910390fd5b6001600160a01b03808416600081815260016020908152604080832094871680845294825291829020859055815185815291517f8c5be1e5ebec7d5bd14f71427d1e84f3dd0314c0f7b2291e5b200ac8c7c3b9259281900390910190a3505050565b600082612bfb57506000610ed6565b82820282848281612c0857fe5b0414612af55760405162461bcd60e51b8152600401808060200182810382526021815260200180613cb06021913960400191505060405180910390fd5b6000612af583836040518060400160405280601a81526020017f536166654d6174683a206469766973696f6e206279207a65726f0000000000008152506136e4565b600a54604080516370a0823160e01b815230600482015290516000926001600160a01b0316916370a08231916024808301926020929190829003018186803b158015612cd257600080fd5b505afa158015612ce6573d6000803e3d6000fd5b505050506040513d6020811015612cfc57600080fd5b50519050612d0982613749565b600a54604080516370a0823160e01b81523060048201529051600092612d8f9285926001600160a01b03909216916370a0823191602480820192602092909190829003018186803b158015612d5d57600080fd5b505afa158015612d71573d6000803e3d6000fd5b505050506040513d6020811015612d8757600080fd5b505190613924565b600a546012546040805163a9059cbb60e01b81526001600160a01b03928316600482015260248101859052905193945091169163a9059cbb916044808201926020929091908290030181600087803b158015612dea57600080fd5b505af1158015612dfe573d6000803e3d6000fd5b505050506040513d602081101561113057600080fd5b612e1d81613749565b600a54604080516370a0823160e01b815230600482015290516000926001600160a01b0316916370a08231916024808301926020929190829003018186803b158015612e6857600080fd5b505afa158015612e7c573d6000803e3d6000fd5b505050506040513d6020811015612e9257600080fd5b5051600a546008546040805163a9059cbb60e01b81526001600160a01b039283166004820152602481018590529051939450600093919092169163a9059cbb91604480830192602092919082900301818787803b158015612ef257600080fd5b505af1158015612f06573d6000803e3d6000fd5b505050506040513d6020811015612f1c57600080fd5b50519050801561138f576008546040805163edd6bf8760e01b81526004810185905290516001600160a01b039092169163edd6bf879160248082019260009290919082900301818387803b158015612f7357600080fd5b505af1158015612f87573d6000803e3d6000fd5b5050604080518681526020810186905281517f80195cc573b02cc48460cbca6e6e4cc85ddb91959d946e1c3025ea3d87942dc39450908190039091019150a1505050565b6001600160a01b0383166000908152601560205260409020548390829060ff16151560011480612ffd5750600c548111155b6130385760405162461bcd60e51b8152600401808060200182810382526027815260200180613d966027913960400191505060405180910390fd5b6001600160a01b03851661307d5760405162461bcd60e51b8152600401808060200182810382526025815260200180613d4d6025913960400191505060405180910390fd5b6001600160a01b0384166130c25760405162461bcd60e51b8152600401808060200182810382526023815260200180613ac26023913960400191505060405180910390fd5b6001600160a01b0385166000908152600e602052604090205460ff1615801561310457506001600160a01b0384166000908152600e602052604090205460ff16155b61314b576040805162461bcd60e51b8152602060048201526013602482015272426c61636b6c6973746564206164647265737360681b604482015290519081900360640190fd5b826131615761315c85856000613966565b611130565b600061316c30611a83565b600b546001600160a01b038816600090815260146020526040812054929350908310159160ff16806131b657506001600160a01b03871660009081526014602052604090205460ff165b600754909150600090600160a01b900460ff161580156131d35750815b6017805460ff1916851515179055905080156132285760006132056064610f836011548b612bec90919063ffffffff16565b90506132118882613924565b975061321e8a3083613966565b600d805490910190555b82801561323f5750600754600160a01b900460ff16155b801561326457506001600160a01b03891660009081526016602052604090205460ff16155b801561328957506132736120f0565b6001600160a01b0316896001600160a01b031614155b80156132ae57506132986120f0565b6001600160a01b0316886001600160a01b031614155b80156132b75750815b1561332f576007805460ff60a01b1916600160a01b1790556011546010546000916132e791610f83908890612bec565b90506132f281612c87565b600061330f601154610f83600f5489612bec90919063ffffffff16565b905061331a81612e14565b50506007805460ff60a01b191690556000600d555b61333a898989613966565b6008546001600160a01b031663e30443bc8a61335581611a83565b6040518363ffffffff1660e01b815260040180836001600160a01b0316815260200182815260200192505050600060405180830381600087803b15801561339b57600080fd5b505af19250505080156133ac575060015b506008546001600160a01b031663e30443bc896133c881611a83565b6040518363ffffffff1660e01b815260040180836001600160a01b0316815260200182815260200192505050600060405180830381600087803b15801561340e57600080fd5b505af192505050801561341f575060015b50600754600160a01b900460ff1661351457601354600854604080516001624d3b8760e01b031981526004810184905290516001600160a01b039092169163ffb2c479916024808201926060929091908290030181600087803b15801561348557600080fd5b505af19250505080156134b957506040513d60608110156134a557600080fd5b508051602082015160409092015190919060015b6134c257613512565b604080518481526020810184905280820183905260608101869052905132916001917fc864333d6121033635ab41b29ae52f10a22cf4438c3e4f1c4c68518feb2f8a989181900360800190a35050505b505b505050505050505050565b600081848411156135ae5760405162461bcd60e51b81526004018080602001828103825283818151815260200191508051906020019080838360005b8381101561357357818101518382015260200161355b565b50505050905090810190601f1680156135a05780820380516001836020036101000a031916815260200191505b509250505060405180910390fd5b505050900390565b6001600160a01b03821660009081526016602052604090205460ff16151581151514156136145760405162461bcd60e51b815260040180806020018281038252603f815260200180613dbd603f913960400191505060405180910390fd5b6001600160a01b0382166000908152601660205260409020805460ff191682158015919091179091556136a8576008546040805163031e79db60e41b81526001600160a01b038581166004830152915191909216916331e79db091602480830192600092919082900301818387803b15801561368f57600080fd5b505af11580156136a3573d6000803e3d6000fd5b505050505b604051811515906001600160a01b038416907fffa9187bf1f18bf477bd0ea1bcbb64e93b6a98132473929edfce215cd9b16fab90600090a35050565b600081836137335760405162461bcd60e51b815260206004820181815283516024840152835190928392604490910191908501908083836000831561357357818101518382015260200161355b565b50600083858161373f57fe5b0495945050505050565b60408051600380825260808201909252606091602082018380368337019050509050308160008151811061377957fe5b6001600160a01b03928316602091820292909201810191909152600654604080516315ab88c960e31b81529051919093169263ad5c4648926004808301939192829003018186803b1580156137cd57600080fd5b505afa1580156137e1573d6000803e3d6000fd5b505050506040513d60208110156137f757600080fd5b505181518290600190811061380857fe5b6001600160a01b039283166020918202929092010152600a5482519116908290600290811061383357fe5b6001600160a01b0392831660209182029290920101526006546138599130911684612b00565b600654604051635c11d79560e01b8152600481018481526000602483018190523060648401819052426084850181905260a060448601908152875160a487015287516001600160a01b0390971696635c11d795968a968a9594939092909160c40190602080880191028083838b5b838110156138df5781810151838201526020016138c7565b505050509050019650505050505050600060405180830381600087803b15801561390857600080fd5b505af115801561391c573d6000803e3d6000fd5b505050505050565b6000612af583836040518060400160405280601e81526020017f536166654d6174683a207375627472616374696f6e206f766572666c6f77000081525061351f565b6001600160a01b0383166139ab5760405162461bcd60e51b8152600401808060200182810382526025815260200180613d4d6025913960400191505060405180910390fd5b6001600160a01b0382166139f05760405162461bcd60e51b8152600401808060200182810382526023815260200180613ac26023913960400191505060405180910390fd5b6139fb83838361138f565b613a3881604051806060016040528060268152602001613c57602691396001600160a01b038616600090815260208190526040902054919061351f565b6001600160a01b038085166000908152602081905260408082209390935590841681522054613a679082612a9b565b6001600160a01b038084166000818152602081815260409182902094909455805185815290519193928716927fddf252ad1be2c89b69c2b068fc378daa952ba7f163c4a11628f55a4df523b3ef92918290030190a350505056fe45524332303a207472616e7366657220746f20746865207a65726f20616464726573734f4c4f49443a20676173466f7250726f63657373696e67206d757374206265206265747765656e203230302c30303020616e64203530302c3030304f4c4f49443a205468652050616e63616b655377617020706169722063616e6e6f742062652072656d6f7665642066726f6d206175746f6d617465644d61726b65744d616b657250616972734f776e61626c653a206e6577206f776e657220697320746865207a65726f206164647265737345524332303a20617070726f766520746f20746865207a65726f20616464726573734f4c4f49443a2054686520726f7574657220616c726561647920686173207468617420616464726573734f4c4f49443a204163636f756e7420697320616c7265616479207468652076616c7565206f662027696e636c75646564274f4c4f49443a20546865206e6577206469766964656e6420747261636b6572206d757374206265206f776e656420627920746865205553445420746f6b656e20636f6e747261637445524332303a207472616e7366657220616d6f756e7420657863656564732062616c616e63654f4c4f49443a2043616e6e6f742075706461746520676173466f7250726f63657373696e6720746f2073616d652076616c7565536166654d6174683a206d756c7469706c69636174696f6e206f766572666c6f774f4c4f49443a20546865206469766964656e6420747261636b657220616c7265616479206861732074686174206164647265737345524332303a207472616e7366657220616d6f756e74206578636565647320616c6c6f77616e63654f776e61626c653a2063616c6c6572206973206e6f7420746865206f776e657245524332303a207472616e736665722066726f6d20746865207a65726f206164647265737345524332303a20617070726f76652066726f6d20746865207a65726f20616464726573735472616e7366657220616d6f756e74206f76657220746865206d617820747820616d6f756e742e4f4c4f49443a204175746f6d61746564206d61726b6574206d616b6572207061697220697320616c72656164792073657420746f20746861742076616c756545524332303a2064656372656173656420616c6c6f77616e63652062656c6f77207a65726fa26469706673582212203b5f8b4392f97f74d2c092fde761c5e42a5e045e259d68bf55e29d96bea84b4664736f6c634300060c00336080604052600680546001600160a01b0319167355d398326f99059ff775485246999027b31979551790553480156200003757600080fd5b5060408051808201825260158082527f555344545f4469766964656e645f547261636b657200000000000000000000006020808401828152855180870190965292855284015281519192918391839162000094916003916200012c565b508051620000aa9060049060208401906200012c565b5050506000620000bf6200012860201b60201c565b600580546001600160a01b0319166001600160a01b038316908117909155604051919250906000907f8be0079c531659141344cd1fd0a4f28419497f9722a3daafe3b4186f6b6457e0908290a350506102586012555068056bc75e2d63100000601355620001c8565b3390565b828054600181600116156101000203166002900490600052602060002090601f016020900481019282601f106200016f57805160ff19168380011785556200019f565b828001600101855582156200019f579182015b828111156200019f57825182559160200191906001019062000182565b50620001ad929150620001b1565b5090565b5b80821115620001ad5760008155600101620001b2565b6121f980620001d86000396000f3fe608060405234801561001057600080fd5b506004361061023d5760003560e01c8063715018a61161013b578063be10b614116100b8578063e98030c71161007c578063e98030c7146106e7578063edd6bf8714610704578063f2fde38b14610721578063fbcbc0f114610747578063ffb2c4791461076d5761023d565b8063be10b61414610675578063c54e44eb1461067d578063dd62ed3e14610685578063e30443bc146106b3578063e7841ec0146106df5761023d565b8063a457c2d7116100ff578063a457c2d7146105a3578063a8b9d240146105cf578063a9059cbb146105f5578063aafd847a14610621578063bc4c4b37146106475761023d565b8063715018a61461054157806385a6b3ae146105495780638da5cb5b1461055157806391b89fba1461057557806395d89b411461059b5761023d565b80633009a609116101c957806350c1b9231161018d57806350c1b9231461047d5780635183d6fd146104a35780636a4740021461050b5780636f2789ec1461051357806370a082311461051b5761023d565b80633009a609146103df578063313ce567146103e757806331e79db014610405578063395093511461042b5780634e7b827f146104575761023d565b806318160ddd1161021057806318160ddd14610338578063226cfa3d1461034057806323b872dd1461036657806327ce01471461039c578063286b3aa0146103c25761023d565b806306fdde0314610242578063095ea7b3146102bf57806309bbedde146102ff5780630dcb2e8914610319575b600080fd5b61024a6107a8565b6040805160208082528351818301528351919283929083019185019080838360005b8381101561028457818101518382015260200161026c565b50505050905090810190601f1680156102b15780820380516001836020036101000a031916815260200191505b509250505060405180910390f35b6102eb600480360360408110156102d557600080fd5b506001600160a01b03813516906020013561083e565b604080519115158252519081900360200190f35b61030761085c565b60408051918252519081900360200190f35b6103366004803603602081101561032f57600080fd5b5035610862565b005b6103076108bf565b6103076004803603602081101561035657600080fd5b50356001600160a01b03166108c5565b6102eb6004803603606081101561037c57600080fd5b506001600160a01b038135811691602081013590911690604001356108d7565b610307600480360360208110156103b257600080fd5b50356001600160a01b031661095e565b610336600480360360208110156103d857600080fd5b50356109bd565b610307610a1a565b6103ef610a20565b6040805160ff9092168252519081900360200190f35b6103366004803603602081101561041b57600080fd5b50356001600160a01b0316610a25565b6102eb6004803603604081101561044157600080fd5b506001600160a01b038135169060200135610b13565b6102eb6004803603602081101561046d57600080fd5b50356001600160a01b0316610b61565b6103366004803603602081101561049357600080fd5b50356001600160a01b0316610b76565b6104c0600480360360208110156104b957600080fd5b5035610bf0565b604080516001600160a01b0390991689526020890197909752878701959095526060870193909352608086019190915260a085015260c084015260e083015251908190036101000190f35b610336610c60565b610307610c97565b6103076004803603602081101561053157600080fd5b50356001600160a01b0316610c9d565b610336610cb8565b610307610d5a565b610559610d60565b604080516001600160a01b039092168252519081900360200190f35b6103076004803603602081101561058b57600080fd5b50356001600160a01b0316610d6f565b61024a610d7a565b6102eb600480360360408110156105b957600080fd5b506001600160a01b038135169060200135610ddb565b610307600480360360208110156105e557600080fd5b50356001600160a01b0316610e43565b6102eb6004803603604081101561060b57600080fd5b506001600160a01b038135169060200135610e6f565b6103076004803603602081101561063757600080fd5b50356001600160a01b0316610e83565b6102eb6004803603604081101561065d57600080fd5b506001600160a01b0381351690602001351515610e9e565b610307610f73565b610559610f79565b6103076004803603604081101561069b57600080fd5b506001600160a01b0381358116916020013516610f88565b610336600480360360408110156106c957600080fd5b506001600160a01b038135169060200135610fb3565b61030761107c565b610336600480360360208110156106fd57600080fd5b5035611082565b6103366004803603602081101561071a57600080fd5b503561119e565b6103366004803603602081101561073757600080fd5b50356001600160a01b0316611288565b6104c06004803603602081101561075d57600080fd5b50356001600160a01b0316611381565b61078a6004803603602081101561078357600080fd5b503561146a565b60408051938452602084019290925282820152519081900360600190f35b60038054604080516020601f60026000196101006001881615020190951694909404938401819004810282018101909252828152606093909290918301828280156108345780601f1061080957610100808354040283529160200191610834565b820191906000526020600020905b81548152906001019060200180831161081757829003601f168201915b5050505050905090565b600061085261084b611568565b848461156c565b5060015b92915050565b600b5490565b61086a611568565b6005546001600160a01b039081169116146108ba576040805162461bcd60e51b8152602060048201819052602482015260008051602061208b833981519152604482015290519081900360640190fd5b601355565b60025490565b60116020526000908152604090205481565b60006108e4848484611658565b610954846108f0611568565b61094f85604051806060016040528060288152602001612063602891396001600160a01b038a1660009081526001602052604081209061092e611568565b6001600160a01b03168152602081019190915260400160002054919061168f565b61156c565b5060019392505050565b6001600160a01b038116600090815260086020526040812054600160801b906109ad906109a8906109a261099d61099488610c9d565b60075490611726565b611786565b90611796565b6117c9565b816109b457fe5b0490505b919050565b6109c5611568565b6005546001600160a01b03908116911614610a15576040805162461bcd60e51b8152602060048201819052602482015260008051602061208b833981519152604482015290519081900360640190fd5b600f55565b600f5481565b601290565b610a2d611568565b6005546001600160a01b03908116911614610a7d576040805162461bcd60e51b8152602060048201819052602482015260008051602061208b833981519152604482015290519081900360640190fd5b6001600160a01b03811660009081526010602052604090205460ff1615610aa357600080fd5b6001600160a01b0381166000908152601060205260408120805460ff19166001179055610ad19082906117dc565b610adc600b82611835565b6040516001600160a01b038216907fa878b31040b2e6d0a9a3d3361209db3908ba62014b0dca52adbaee451d128b2590600090a250565b6000610852610b20611568565b8461094f8560016000610b31611568565b6001600160a01b03908116825260208083019390935260409182016000908120918c168152925290205490611953565b60106020526000908152604090205460ff1681565b610b7e611568565b6005546001600160a01b03908116911614610bce576040805162461bcd60e51b8152602060048201819052602482015260008051602061208b833981519152604482015290519081900360640190fd5b600680546001600160a01b0319166001600160a01b0392909216919091179055565b600080600080600080600080610c06600b6119ad565b8910610c2b575060009650600019955085945086935083925082915081905080610c55565b6000610c38600b8b6119b1565b9050610c4381611381565b98509850985098509850985098509850505b919395975091939597565b60405162461bcd60e51b815260040180806020018281038252606581526020018061213a6065913960800191505060405180910390fd5b60125481565b6001600160a01b031660009081526020819052604090205490565b610cc0611568565b6005546001600160a01b03908116911614610d10576040805162461bcd60e51b8152602060048201819052602482015260008051602061208b833981519152604482015290519081900360640190fd5b6005546040516000916001600160a01b0316907f8be0079c531659141344cd1fd0a4f28419497f9722a3daafe3b4186f6b6457e0908390a3600580546001600160a01b0319169055565b600a5481565b6005546001600160a01b031690565b600061085682610e43565b60048054604080516020601f60026000196101006001881615020190951694909404938401819004810282018101909252828152606093909290918301828280156108345780601f1061080957610100808354040283529160200191610834565b6000610852610de8611568565b8461094f8560405180606001604052806025815260200161219f6025913960016000610e12611568565b6001600160a01b03908116825260208083019390935260409182016000908120918d1681529252902054919061168f565b6001600160a01b03811660009081526009602052604081205461085690610e698461095e565b906119de565b6000610852610e7c611568565b8484611658565b6001600160a01b031660009081526009602052604090205490565b6000610ea8611568565b6005546001600160a01b03908116911614610ef8576040805162461bcd60e51b8152602060048201819052602482015260008051602061208b833981519152604482015290519081900360640190fd5b6000610f0384611a20565b90508015610f69576001600160a01b0384166000818152601160209081526040918290204290558151848152915186151593927fa2c38e2d2fb7e3e1912d937fd1ca11ed6d51864dee4cfa7a7bf02becd7acf09292908290030190a36001915050610856565b5060009392505050565b60135481565b6006546001600160a01b031681565b6001600160a01b03918216600090815260016020908152604080832093909416825291909152205490565b610fbb611568565b6005546001600160a01b0390811691161461100b576040805162461bcd60e51b8152602060048201819052602482015260008051602061208b833981519152604482015290519081900360640190fd5b6001600160a01b03821660009081526010602052604090205460ff161561103157611078565b60135481106110555761104482826117dc565b611050600b8383611b8f565b61106b565b6110608260006117dc565b61106b600b83611835565b611076826001610e9e565b505b5050565b600f5490565b61108a611568565b6005546001600160a01b039081169116146110da576040805162461bcd60e51b8152602060048201819052602482015260008051602061208b833981519152604482015290519081900360640190fd5b61025881101580156110ef5750620151808111155b61112a5760405162461bcd60e51b815260040180806020018281038252604a8152602001806120cc604a913960600191505060405180910390fd5b60125481141561116b5760405162461bcd60e51b815260040180806020018281038252603c815260200180612006603c913960400191505060405180910390fd5b60125460405182907f474ea64804364a1e29a4487ddb63c3342a2dd826ccd8acf48825e680a0e6f20f90600090a3601255565b6111a6611568565b6005546001600160a01b039081169116146111f6576040805162461bcd60e51b8152602060048201819052602482015260008051602061208b833981519152604482015290519081900360640190fd5b60006112006108bf565b1161120a57600080fd5b80156112855761123b61121b6108bf565b61122983600160801b611726565b8161123057fe5b600754919004611953565b60075560408051828152905133917fa493a9229478c3fcd73f66d2cdeb7f94fd0f341da924d1054236d78454116511919081900360200190a2600a546112819082611953565b600a555b50565b611290611568565b6005546001600160a01b039081169116146112e0576040805162461bcd60e51b8152602060048201819052602482015260008051602061208b833981519152604482015290519081900360640190fd5b6001600160a01b0381166113255760405162461bcd60e51b8152600401808060200182810382526026815260200180611fbe6026913960400191505060405180910390fd5b6005546040516001600160a01b038084169216907f8be0079c531659141344cd1fd0a4f28419497f9722a3daafe3b4186f6b6457e090600090a3600580546001600160a01b0319166001600160a01b0392909216919091179055565b806000808080808080611395600b89611c38565b96506000199550600087126113f757600f548711156113c357600f546113bc908890611c83565b95506113f7565b600f54600b54600091106113d85760006113e7565b600f54600b546113e7916119de565b90506113f38882611796565b9650505b61140088610e43565b945061140b8861095e565b6001600160a01b038916600090815260116020526040902054909450925082611435576000611443565b601254611443908490611953565b915042821161145357600061145d565b61145d82426119de565b9050919395975091939597565b600b54600090819081908061148a575050600f5460009250829150611561565b600f546000805a90506000805b89841080156114a557508582105b1561155057600b5460019095019485106114be57600094505b6000600b60000186815481106114d057fe5b60009182526020808320909101546001600160a01b0316808352601190915260409091205490915061150190611cb5565b1561151d57611511816001610e9e565b1561151d576001909101905b60019092019160005a9050808511156115475761154461153d86836119de565b8790611953565b95505b93506114979050565b600f85905590975095509193505050505b9193909250565b3390565b6001600160a01b0383166115b15760405162461bcd60e51b81526004018080602001828103825260248152602001806121166024913960400191505060405180910390fd5b6001600160a01b0382166115f65760405162461bcd60e51b8152600401808060200182810382526022815260200180611fe46022913960400191505060405180910390fd5b6001600160a01b03808416600081815260016020908152604080832094871680845294825291829020859055815185815291517f8c5be1e5ebec7d5bd14f71427d1e84f3dd0314c0f7b2291e5b200ac8c7c3b9259281900390910190a3505050565b60405162461bcd60e51b815260040180806020018281038252602b815260200180611f71602b913960400191505060405180910390fd5b6000818484111561171e5760405162461bcd60e51b81526004018080602001828103825283818151815260200191508051906020019080838360005b838110156116e35781810151838201526020016116cb565b50505050905090810190601f1680156117105780820380516001836020036101000a031916815260200191505b509250505060405180910390fd5b505050900390565b60008261173557506000610856565b8282028284828161174257fe5b041461177f5760405162461bcd60e51b81526004018080602001828103825260218152602001806120426021913960400191505060405180910390fd5b9392505050565b6000818181121561085657600080fd5b60008282018183128015906117ab5750838112155b806117c057506000831280156117c057508381125b61177f57600080fd5b6000808212156117d857600080fd5b5090565b60006117e783610c9d565b90508082111561180f5760006117fd83836119de565b90506118098482611cdc565b50611076565b8082101561107657600061182382846119de565b905061182f8482611d40565b50505050565b6001600160a01b038116600090815260038301602052604090205460ff1661185c57611078565b6001600160a01b03811660009081526003830160209081526040808320805460ff1916905560018501825280832083905560028501909152812054835490916000198201918590839081106118ad57fe5b60009182526020808320909101546001600160a01b039081168084526002890190925260408084208790559087168352822091909155855490915081908690859081106118f657fe5b600091825260209091200180546001600160a01b0319166001600160a01b0392909216919091179055845485908061192a57fe5b600082815260209020810160001990810180546001600160a01b03191690550190555050505050565b60008282018381101561177f576040805162461bcd60e51b815260206004820152601b60248201527f536166654d6174683a206164646974696f6e206f766572666c6f770000000000604482015290519081900360640190fd5b5490565b60008260000182815481106119c257fe5b6000918252602090912001546001600160a01b03169392505050565b600061177f83836040518060400160405280601e81526020017f536166654d6174683a207375627472616374696f6e206f766572666c6f77000081525061168f565b600080611a2c83610e43565b90508015611b86576001600160a01b038316600090815260096020526040902054611a579082611953565b6001600160a01b038416600081815260096020908152604091829020939093558051848152905191927fee503bee2bb6a87e57bc57db795f98137327401a0e7b7ce42e37926cc1a9ca4d92918290030190a26006546040805163a9059cbb60e01b81526001600160a01b038681166004830152602482018590529151600093929092169163a9059cbb9160448082019260209290919082900301818787803b158015611b0257600080fd5b505af1158015611b16573d6000803e3d6000fd5b505050506040513d6020811015611b2c57600080fd5b5051905080611b7e576001600160a01b038416600090815260096020526040902054611b5890836119de565b6001600160a01b03851660009081526009602052604081209190915592506109b8915050565b5090506109b8565b50600092915050565b6001600160a01b038216600090815260038401602052604090205460ff1615611bd4576001600160a01b03821660009081526001840160205260409020819055611076565b6001600160a01b03821660008181526003850160209081526040808320805460ff19166001908117909155878101835281842086905587546002890184529184208290558101875586835291200180546001600160a01b0319169091179055505050565b6001600160a01b038116600090815260038301602052604081205460ff16611c635750600019610856565b506001600160a01b03166000908152600291909101602052604090205490565b6000818303818312801590611c985750838113155b806117c057506000831280156117c0575083811361177f57600080fd5b600042821115611cc7575060006109b8565b601254611cd442846119de565b101592915050565b611ce68282611d84565b611d20611d0161099d8360075461172690919063ffffffff16565b6001600160a01b03841660009081526008602052604090205490611c83565b6001600160a01b0390921660009081526008602052604090209190915550565b611d4a8282611e74565b611d20611d6561099d8360075461172690919063ffffffff16565b6001600160a01b03841660009081526008602052604090205490611796565b6001600160a01b038216611ddf576040805162461bcd60e51b815260206004820152601f60248201527f45524332303a206d696e7420746f20746865207a65726f206164647265737300604482015290519081900360640190fd5b611deb60008383611076565b600254611df89082611953565b6002556001600160a01b038216600090815260208190526040902054611e1e9082611953565b6001600160a01b0383166000818152602081815260408083209490945583518581529351929391927fddf252ad1be2c89b69c2b068fc378daa952ba7f163c4a11628f55a4df523b3ef9281900390910190a35050565b6001600160a01b038216611eb95760405162461bcd60e51b81526004018080602001828103825260218152602001806120ab6021913960400191505060405180910390fd5b611ec582600083611076565b611f0281604051806060016040528060228152602001611f9c602291396001600160a01b038516600090815260208190526040902054919061168f565b6001600160a01b038316600090815260208190526040902055600254611f2890826119de565b6002556040805182815290516000916001600160a01b038516917fddf252ad1be2c89b69c2b068fc378daa952ba7f163c4a11628f55a4df523b3ef9181900360200190a3505056fe555344545f4469766964656e645f547261636b65723a204e6f207472616e736665727320616c6c6f77656445524332303a206275726e20616d6f756e7420657863656564732062616c616e63654f776e61626c653a206e6577206f776e657220697320746865207a65726f206164647265737345524332303a20617070726f766520746f20746865207a65726f2061646472657373555344545f4469766964656e645f547261636b65723a2043616e6e6f742075706461746520636c61696d5761697420746f2073616d652076616c7565536166654d6174683a206d756c7469706c69636174696f6e206f766572666c6f7745524332303a207472616e7366657220616d6f756e74206578636565647320616c6c6f77616e63654f776e61626c653a2063616c6c6572206973206e6f7420746865206f776e657245524332303a206275726e2066726f6d20746865207a65726f2061646472657373555344545f4469766964656e645f547261636b65723a20636c61696d57616974206d757374206265207570646174656420746f206265747765656e203120616e6420323420686f75727345524332303a20617070726f76652066726f6d20746865207a65726f2061646472657373555344545f4469766964656e645f547261636b65723a2077697468647261774469766964656e642064697361626c65642e20557365207468652027636c61696d272066756e6374696f6e206f6e20746865206d61696e205553445420636f6e74726163742e45524332303a2064656372656173656420616c6c6f77616e63652062656c6f77207a65726fa2646970667358221220a9d4db11c2e6765c64c2ef9b11f313a62776aa36e6ed91154a299158975f4dfd64736f6c634300060c00334f4c4f49443a204163636f756e7420697320616c7265616479207468652076616c7565206f662027696e636c75646564274f776e61626c653a2063616c6c6572206973206e6f7420746865206f776e65724f4c4f49443a204175746f6d61746564206d61726b6574206d616b6572207061697220697320616c72656164792073657420746f20746861742076616c7565",
  "linkReferences": {},
  "deployedLinkReferences": {}
}